{
  "_format": "hh-sol-artifact-1",
  "contractName": "Coffee2",
  "sourceName": "contracts/Coffee2.sol",
  "abi": [
    {
      "inputs": [],
      "stateMutability": "payable",
      "type": "constructor"
    },
    {
      "anonymous": false,
      "inputs": [
        {
          "indexed": false,
          "internalType": "string",
          "name": "upc",
          "type": "string"
        }
      ],
      "name": "Harvested",
      "type": "event"
    },
    {
      "anonymous": false,
      "inputs": [
        {
          "indexed": false,
          "internalType": "string",
          "name": "upc",
          "type": "string"
        }
      ],
      "name": "Packaged",
      "type": "event"
    },
    {
      "anonymous": false,
      "inputs": [
        {
          "indexed": false,
          "internalType": "string",
          "name": "upc",
          "type": "string"
        }
      ],
      "name": "Planted",
      "type": "event"
    },
    {
      "anonymous": false,
      "inputs": [
        {
          "indexed": false,
          "internalType": "string",
          "name": "upc",
          "type": "string"
        }
      ],
      "name": "Processed",
      "type": "event"
    },
    {
      "anonymous": false,
      "inputs": [
        {
          "indexed": false,
          "internalType": "string",
          "name": "upc",
          "type": "string"
        }
      ],
      "name": "Roasted",
      "type": "event"
    },
    {
      "inputs": [
        {
          "internalType": "string",
          "name": "_upc",
          "type": "string"
        },
        {
          "internalType": "address",
          "name": "_pAdd",
          "type": "address"
        },
        {
          "internalType": "string",
          "name": "_s_variety",
          "type": "string"
        },
        {
          "internalType": "string",
          "name": "_s_temp",
          "type": "string"
        },
        {
          "internalType": "string",
          "name": "_s_region",
          "type": "string"
        },
        {
          "internalType": "string",
          "name": "_s_elevation",
          "type": "string"
        },
        {
          "internalType": "uint256",
          "name": "_s_soiltype",
          "type": "uint256"
        },
        {
          "internalType": "string[]",
          "name": "_s_images",
          "type": "string[]"
        },
        {
          "internalType": "string",
          "name": "_s_date",
          "type": "string"
        },
        {
          "internalType": "string",
          "name": "_s_flowering",
          "type": "string"
        }
      ],
      "name": "addbatch",
      "outputs": [],
      "stateMutability": "payable",
      "type": "function"
    },
    {
      "inputs": [],
      "name": "getInv",
      "outputs": [
        {
          "components": [
            {
              "internalType": "uint256",
              "name": "sku",
              "type": "uint256"
            },
            {
              "internalType": "string",
              "name": "upc",
              "type": "string"
            },
            {
              "internalType": "address",
              "name": "pAdd",
              "type": "address"
            },
            {
              "internalType": "enum Coffee2.State",
              "name": "itemState",
              "type": "uint8"
            },
            {
              "internalType": "string",
              "name": "s_variety",
              "type": "string"
            },
            {
              "internalType": "string",
              "name": "s_temp",
              "type": "string"
            },
            {
              "internalType": "string",
              "name": "s_region",
              "type": "string"
            },
            {
              "internalType": "string",
              "name": "s_elevation",
              "type": "string"
            },
            {
              "internalType": "string",
              "name": "s_flowering",
              "type": "string"
            },
            {
              "internalType": "uint256",
              "name": "s_soiltype",
              "type": "uint256"
            },
            {
              "internalType": "string[]",
              "name": "s_imgs",
              "type": "string[]"
            },
            {
              "internalType": "string",
              "name": "s_date",
              "type": "string"
            },
            {
              "internalType": "string",
              "name": "p_ptype",
              "type": "string"
            },
            {
              "internalType": "string[]",
              "name": "p_params",
              "type": "string[]"
            },
            {
              "internalType": "string",
              "name": "p_pulpdate",
              "type": "string"
            },
            {
              "internalType": "string",
              "name": "p_dtabledate",
              "type": "string"
            },
            {
              "internalType": "string",
              "name": "p_dcompdate",
              "type": "string"
            },
            {
              "internalType": "string",
              "name": "p_dparams",
              "type": "string"
            },
            {
              "internalType": "string",
              "name": "p_bdate",
              "type": "string"
            },
            {
              "internalType": "string",
              "name": "p_spackdate",
              "type": "string"
            },
            {
              "internalType": "string[]",
              "name": "p_imgs",
              "type": "string[]"
            },
            {
              "internalType": "string",
              "name": "h_resttime",
              "type": "string"
            },
            {
              "internalType": "string",
              "name": "h_startdate",
              "type": "string"
            },
            {
              "internalType": "string",
              "name": "h_gradesize",
              "type": "string"
            },
            {
              "internalType": "string",
              "name": "h_baggingdetails",
              "type": "string"
            },
            {
              "internalType": "string",
              "name": "r_date",
              "type": "string"
            },
            {
              "internalType": "string",
              "name": "r_degasstime",
              "type": "string"
            },
            {
              "internalType": "string",
              "name": "r_flavourp",
              "type": "string"
            },
            {
              "internalType": "string[]",
              "name": "r_imgs",
              "type": "string[]"
            },
            {
              "internalType": "string",
              "name": "m_date",
              "type": "string"
            }
          ],
          "internalType": "struct Coffee2.Batch[]",
          "name": "",
          "type": "tuple[]"
        }
      ],
      "stateMutability": "view",
      "type": "function"
    },
    {
      "inputs": [],
      "name": "getItems",
      "outputs": [
        {
          "internalType": "uint256",
          "name": "",
          "type": "uint256"
        }
      ],
      "stateMutability": "view",
      "type": "function"
    },
    {
      "inputs": [
        {
          "internalType": "uint256",
          "name": "sku",
          "type": "uint256"
        }
      ],
      "name": "getinfo2",
      "outputs": [
        {
          "components": [
            {
              "internalType": "uint256",
              "name": "sku",
              "type": "uint256"
            },
            {
              "internalType": "string",
              "name": "upc",
              "type": "string"
            },
            {
              "internalType": "address",
              "name": "pAdd",
              "type": "address"
            },
            {
              "internalType": "enum Coffee2.State",
              "name": "itemState",
              "type": "uint8"
            },
            {
              "internalType": "string",
              "name": "s_variety",
              "type": "string"
            },
            {
              "internalType": "string",
              "name": "s_temp",
              "type": "string"
            },
            {
              "internalType": "string",
              "name": "s_region",
              "type": "string"
            },
            {
              "internalType": "string",
              "name": "s_elevation",
              "type": "string"
            },
            {
              "internalType": "string",
              "name": "s_flowering",
              "type": "string"
            },
            {
              "internalType": "uint256",
              "name": "s_soiltype",
              "type": "uint256"
            },
            {
              "internalType": "string[]",
              "name": "s_imgs",
              "type": "string[]"
            },
            {
              "internalType": "string",
              "name": "s_date",
              "type": "string"
            },
            {
              "internalType": "string",
              "name": "p_ptype",
              "type": "string"
            },
            {
              "internalType": "string[]",
              "name": "p_params",
              "type": "string[]"
            },
            {
              "internalType": "string",
              "name": "p_pulpdate",
              "type": "string"
            },
            {
              "internalType": "string",
              "name": "p_dtabledate",
              "type": "string"
            },
            {
              "internalType": "string",
              "name": "p_dcompdate",
              "type": "string"
            },
            {
              "internalType": "string",
              "name": "p_dparams",
              "type": "string"
            },
            {
              "internalType": "string",
              "name": "p_bdate",
              "type": "string"
            },
            {
              "internalType": "string",
              "name": "p_spackdate",
              "type": "string"
            },
            {
              "internalType": "string[]",
              "name": "p_imgs",
              "type": "string[]"
            },
            {
              "internalType": "string",
              "name": "h_resttime",
              "type": "string"
            },
            {
              "internalType": "string",
              "name": "h_startdate",
              "type": "string"
            },
            {
              "internalType": "string",
              "name": "h_gradesize",
              "type": "string"
            },
            {
              "internalType": "string",
              "name": "h_baggingdetails",
              "type": "string"
            },
            {
              "internalType": "string",
              "name": "r_date",
              "type": "string"
            },
            {
              "internalType": "string",
              "name": "r_degasstime",
              "type": "string"
            },
            {
              "internalType": "string",
              "name": "r_flavourp",
              "type": "string"
            },
            {
              "internalType": "string[]",
              "name": "r_imgs",
              "type": "string[]"
            },
            {
              "internalType": "string",
              "name": "m_date",
              "type": "string"
            }
          ],
          "internalType": "struct Coffee2.Batch",
          "name": "",
          "type": "tuple"
        }
      ],
      "stateMutability": "view",
      "type": "function"
    },
    {
      "inputs": [],
      "name": "getstates",
      "outputs": [
        {
          "internalType": "string[]",
          "name": "",
          "type": "string[]"
        }
      ],
      "stateMutability": "view",
      "type": "function"
    },
    {
      "inputs": [],
      "name": "getupcs",
      "outputs": [
        {
          "internalType": "string[]",
          "name": "",
          "type": "string[]"
        }
      ],
      "stateMutability": "view",
      "type": "function"
    },
    {
      "inputs": [
        {
          "internalType": "uint256",
          "name": "_sku",
          "type": "uint256"
        },
        {
          "internalType": "string",
          "name": "_h_resttime",
          "type": "string"
        },
        {
          "internalType": "string",
          "name": "_h_startdate",
          "type": "string"
        },
        {
          "internalType": "string",
          "name": "_h_gradesize",
          "type": "string"
        },
        {
          "internalType": "string",
          "name": "_h_baggingdetails",
          "type": "string"
        }
      ],
      "name": "hulling",
      "outputs": [],
      "stateMutability": "payable",
      "type": "function"
    },
    {
      "inputs": [
        {
          "internalType": "uint256",
          "name": "_sku",
          "type": "uint256"
        },
        {
          "internalType": "string",
          "name": "_m_date",
          "type": "string"
        }
      ],
      "name": "packaging",
      "outputs": [
        {
          "components": [
            {
              "internalType": "uint256",
              "name": "sku",
              "type": "uint256"
            },
            {
              "internalType": "string",
              "name": "upc",
              "type": "string"
            },
            {
              "internalType": "address",
              "name": "pAdd",
              "type": "address"
            },
            {
              "internalType": "enum Coffee2.State",
              "name": "itemState",
              "type": "uint8"
            },
            {
              "internalType": "string",
              "name": "s_variety",
              "type": "string"
            },
            {
              "internalType": "string",
              "name": "s_temp",
              "type": "string"
            },
            {
              "internalType": "string",
              "name": "s_region",
              "type": "string"
            },
            {
              "internalType": "string",
              "name": "s_elevation",
              "type": "string"
            },
            {
              "internalType": "string",
              "name": "s_flowering",
              "type": "string"
            },
            {
              "internalType": "uint256",
              "name": "s_soiltype",
              "type": "uint256"
            },
            {
              "internalType": "string[]",
              "name": "s_imgs",
              "type": "string[]"
            },
            {
              "internalType": "string",
              "name": "s_date",
              "type": "string"
            },
            {
              "internalType": "string",
              "name": "p_ptype",
              "type": "string"
            },
            {
              "internalType": "string[]",
              "name": "p_params",
              "type": "string[]"
            },
            {
              "internalType": "string",
              "name": "p_pulpdate",
              "type": "string"
            },
            {
              "internalType": "string",
              "name": "p_dtabledate",
              "type": "string"
            },
            {
              "internalType": "string",
              "name": "p_dcompdate",
              "type": "string"
            },
            {
              "internalType": "string",
              "name": "p_dparams",
              "type": "string"
            },
            {
              "internalType": "string",
              "name": "p_bdate",
              "type": "string"
            },
            {
              "internalType": "string",
              "name": "p_spackdate",
              "type": "string"
            },
            {
              "internalType": "string[]",
              "name": "p_imgs",
              "type": "string[]"
            },
            {
              "internalType": "string",
              "name": "h_resttime",
              "type": "string"
            },
            {
              "internalType": "string",
              "name": "h_startdate",
              "type": "string"
            },
            {
              "internalType": "string",
              "name": "h_gradesize",
              "type": "string"
            },
            {
              "internalType": "string",
              "name": "h_baggingdetails",
              "type": "string"
            },
            {
              "internalType": "string",
              "name": "r_date",
              "type": "string"
            },
            {
              "internalType": "string",
              "name": "r_degasstime",
              "type": "string"
            },
            {
              "internalType": "string",
              "name": "r_flavourp",
              "type": "string"
            },
            {
              "internalType": "string[]",
              "name": "r_imgs",
              "type": "string[]"
            },
            {
              "internalType": "string",
              "name": "m_date",
              "type": "string"
            }
          ],
          "internalType": "struct Coffee2.Batch",
          "name": "",
          "type": "tuple"
        }
      ],
      "stateMutability": "payable",
      "type": "function"
    },
    {
      "inputs": [
        {
          "internalType": "uint256",
          "name": "_sku",
          "type": "uint256"
        },
        {
          "internalType": "string",
          "name": "_p_ptype",
          "type": "string"
        },
        {
          "internalType": "string[]",
          "name": "_p_params",
          "type": "string[]"
        },
        {
          "internalType": "string",
          "name": "_p_pulpdate",
          "type": "string"
        },
        {
          "internalType": "string",
          "name": "_p_dtabledate",
          "type": "string"
        },
        {
          "internalType": "string",
          "name": "_p_dcompdate",
          "type": "string"
        },
        {
          "internalType": "string",
          "name": "_p_dparams",
          "type": "string"
        },
        {
          "internalType": "string",
          "name": "_p_bdate",
          "type": "string"
        },
        {
          "internalType": "string",
          "name": "_p_spackdate",
          "type": "string"
        },
        {
          "internalType": "string[]",
          "name": "_p_imgs",
          "type": "string[]"
        }
      ],
      "name": "processing",
      "outputs": [],
      "stateMutability": "payable",
      "type": "function"
    },
    {
      "inputs": [
        {
          "internalType": "uint256",
          "name": "_sku",
          "type": "uint256"
        },
        {
          "internalType": "string",
          "name": "_r_date",
          "type": "string"
        },
        {
          "internalType": "string",
          "name": "_r_degasstime",
          "type": "string"
        },
        {
          "internalType": "string",
          "name": "_r_flavourp",
          "type": "string"
        },
        {
          "internalType": "string[]",
          "name": "_r_imgs",
          "type": "string[]"
        }
      ],
      "name": "roasting",
      "outputs": [],
      "stateMutability": "payable",
      "type": "function"
    }
  ],
  "bytecode": "0x600080546001600160a01b0319163317815560025560c0604052600460809081526342312e3160e01b60a0526001906200003a9082620000e6565b50620001b2565b634e487b7160e01b600052604160045260246000fd5b600181811c908216806200006c57607f821691505b6020821081036200008d57634e487b7160e01b600052602260045260246000fd5b50919050565b601f821115620000e157600081815260208120601f850160051c81016020861015620000bc5750805b601f850160051c820191505b81811015620000dd57828155600101620000c8565b5050505b505050565b81516001600160401b0381111562000102576200010262000041565b6200011a8162000113845462000057565b8462000093565b602080601f831160018114620001525760008415620001395750858301515b600019600386901b1c1916600185901b178555620000dd565b600085815260208120601f198616915b82811015620001835788860151825594840194600190910190840162000162565b5085821015620001a25787850151600019600388901b60f8161c191681555b5050505050600190811b01905550565b614d3280620001c26000396000f3fe6080604052600436106100915760003560e01c8063950ebf6211610059578063950ebf6214610125578063a94f122214610147578063f7b283ac1461015c578063fa1f9d471461016f578063fb1bf5d31461018257600080fd5b806318cf728a146100965780631ef92b0b146100cc5780632945ca34146100e1578063410d59cc146100f457806341ef5dbf14610112575b600080fd5b3480156100a257600080fd5b506100b66100b1366004614015565b6101a4565b6040516100c39190614418565b60405180910390f35b6100df6100da366004614588565b61121f565b005b6100df6100ef3660046146f8565b61139c565b34801561010057600080fd5b506002546040519081526020016100c3565b6100b66101203660046147af565b611492565b34801561013157600080fd5b5061013a612590565b6040516100c391906147f6565b34801561015357600080fd5b5061013a612672565b6100df61016a366004614858565b6127bf565b6100df61017d36600461491e565b612856565b34801561018e57600080fd5b50610197612bda565b6040516100c39190614a68565b6101ac613e57565b60036000838152602001908152602001600020604051806103c0016040529081600082015481526020016001820180546101e590614abd565b80601f016020809104026020016040519081016040528092919081815260200182805461021190614abd565b801561025e5780601f106102335761010080835404028352916020019161025e565b820191906000526020600020905b81548152906001019060200180831161024157829003601f168201915b505050918352505060028201546001600160a01b0381166020830152604090910190600160a01b900460ff16600481111561029b5761029b614074565b60048111156102ac576102ac614074565b81526020016003820180546102c090614abd565b80601f01602080910402602001604051908101604052809291908181526020018280546102ec90614abd565b80156103395780601f1061030e57610100808354040283529160200191610339565b820191906000526020600020905b81548152906001019060200180831161031c57829003601f168201915b5050505050815260200160048201805461035290614abd565b80601f016020809104026020016040519081016040528092919081815260200182805461037e90614abd565b80156103cb5780601f106103a0576101008083540402835291602001916103cb565b820191906000526020600020905b8154815290600101906020018083116103ae57829003601f168201915b505050505081526020016005820180546103e490614abd565b80601f016020809104026020016040519081016040528092919081815260200182805461041090614abd565b801561045d5780601f106104325761010080835404028352916020019161045d565b820191906000526020600020905b81548152906001019060200180831161044057829003601f168201915b5050505050815260200160068201805461047690614abd565b80601f01602080910402602001604051908101604052809291908181526020018280546104a290614abd565b80156104ef5780601f106104c4576101008083540402835291602001916104ef565b820191906000526020600020905b8154815290600101906020018083116104d257829003601f168201915b5050505050815260200160078201805461050890614abd565b80601f016020809104026020016040519081016040528092919081815260200182805461053490614abd565b80156105815780601f1061055657610100808354040283529160200191610581565b820191906000526020600020905b81548152906001019060200180831161056457829003601f168201915b505050505081526020016008820154815260200160098201805480602002602001604051908101604052809291908181526020016000905b828210156106655783829060005260206000200180546105d890614abd565b80601f016020809104026020016040519081016040528092919081815260200182805461060490614abd565b80156106515780601f1061062657610100808354040283529160200191610651565b820191906000526020600020905b81548152906001019060200180831161063457829003601f168201915b5050505050815260200190600101906105b9565b505050508152602001600a8201805461067d90614abd565b80601f01602080910402602001604051908101604052809291908181526020018280546106a990614abd565b80156106f65780601f106106cb576101008083540402835291602001916106f6565b820191906000526020600020905b8154815290600101906020018083116106d957829003601f168201915b50505050508152602001600b8201805461070f90614abd565b80601f016020809104026020016040519081016040528092919081815260200182805461073b90614abd565b80156107885780601f1061075d57610100808354040283529160200191610788565b820191906000526020600020905b81548152906001019060200180831161076b57829003601f168201915b50505050508152602001600c8201805480602002602001604051908101604052809291908181526020016000905b828210156108625783829060005260206000200180546107d590614abd565b80601f016020809104026020016040519081016040528092919081815260200182805461080190614abd565b801561084e5780601f106108235761010080835404028352916020019161084e565b820191906000526020600020905b81548152906001019060200180831161083157829003601f168201915b5050505050815260200190600101906107b6565b505050508152602001600d8201805461087a90614abd565b80601f01602080910402602001604051908101604052809291908181526020018280546108a690614abd565b80156108f35780601f106108c8576101008083540402835291602001916108f3565b820191906000526020600020905b8154815290600101906020018083116108d657829003601f168201915b50505050508152602001600e8201805461090c90614abd565b80601f016020809104026020016040519081016040528092919081815260200182805461093890614abd565b80156109855780601f1061095a57610100808354040283529160200191610985565b820191906000526020600020905b81548152906001019060200180831161096857829003601f168201915b50505050508152602001600f8201805461099e90614abd565b80601f01602080910402602001604051908101604052809291908181526020018280546109ca90614abd565b8015610a175780601f106109ec57610100808354040283529160200191610a17565b820191906000526020600020905b8154815290600101906020018083116109fa57829003601f168201915b50505050508152602001601082018054610a3090614abd565b80601f0160208091040260200160405190810160405280929190818152602001828054610a5c90614abd565b8015610aa95780601f10610a7e57610100808354040283529160200191610aa9565b820191906000526020600020905b815481529060010190602001808311610a8c57829003601f168201915b50505050508152602001601182018054610ac290614abd565b80601f0160208091040260200160405190810160405280929190818152602001828054610aee90614abd565b8015610b3b5780601f10610b1057610100808354040283529160200191610b3b565b820191906000526020600020905b815481529060010190602001808311610b1e57829003601f168201915b50505050508152602001601282018054610b5490614abd565b80601f0160208091040260200160405190810160405280929190818152602001828054610b8090614abd565b8015610bcd5780601f10610ba257610100808354040283529160200191610bcd565b820191906000526020600020905b815481529060010190602001808311610bb057829003601f168201915b5050505050815260200160138201805480602002602001604051908101604052809291908181526020016000905b82821015610ca7578382906000526020600020018054610c1a90614abd565b80601f0160208091040260200160405190810160405280929190818152602001828054610c4690614abd565b8015610c935780601f10610c6857610100808354040283529160200191610c93565b820191906000526020600020905b815481529060010190602001808311610c7657829003601f168201915b505050505081526020019060010190610bfb565b505050508152602001601482018054610cbf90614abd565b80601f0160208091040260200160405190810160405280929190818152602001828054610ceb90614abd565b8015610d385780601f10610d0d57610100808354040283529160200191610d38565b820191906000526020600020905b815481529060010190602001808311610d1b57829003601f168201915b50505050508152602001601582018054610d5190614abd565b80601f0160208091040260200160405190810160405280929190818152602001828054610d7d90614abd565b8015610dca5780601f10610d9f57610100808354040283529160200191610dca565b820191906000526020600020905b815481529060010190602001808311610dad57829003601f168201915b50505050508152602001601682018054610de390614abd565b80601f0160208091040260200160405190810160405280929190818152602001828054610e0f90614abd565b8015610e5c5780601f10610e3157610100808354040283529160200191610e5c565b820191906000526020600020905b815481529060010190602001808311610e3f57829003601f168201915b50505050508152602001601782018054610e7590614abd565b80601f0160208091040260200160405190810160405280929190818152602001828054610ea190614abd565b8015610eee5780601f10610ec357610100808354040283529160200191610eee565b820191906000526020600020905b815481529060010190602001808311610ed157829003601f168201915b50505050508152602001601882018054610f0790614abd565b80601f0160208091040260200160405190810160405280929190818152602001828054610f3390614abd565b8015610f805780601f10610f5557610100808354040283529160200191610f80565b820191906000526020600020905b815481529060010190602001808311610f6357829003601f168201915b50505050508152602001601982018054610f9990614abd565b80601f0160208091040260200160405190810160405280929190818152602001828054610fc590614abd565b80156110125780601f10610fe757610100808354040283529160200191611012565b820191906000526020600020905b815481529060010190602001808311610ff557829003601f168201915b50505050508152602001601a8201805461102b90614abd565b80601f016020809104026020016040519081016040528092919081815260200182805461105790614abd565b80156110a45780601f10611079576101008083540402835291602001916110a4565b820191906000526020600020905b81548152906001019060200180831161108757829003601f168201915b50505050508152602001601b8201805480602002602001604051908101604052809291908181526020016000905b8282101561117e5783829060005260206000200180546110f190614abd565b80601f016020809104026020016040519081016040528092919081815260200182805461111d90614abd565b801561116a5780601f1061113f5761010080835404028352916020019161116a565b820191906000526020600020905b81548152906001019060200180831161114d57829003601f168201915b5050505050815260200190600101906110d2565b505050508152602001601c8201805461119690614abd565b80601f01602080910402602001604051908101604052809291908181526020018280546111c290614abd565b801561120f5780601f106111e45761010080835404028352916020019161120f565b820191906000526020600020905b8154815290600101906020018083116111f257829003601f168201915b5050505050815250509050919050565b60008a8152600360205260409020600b0161123a8a82614b46565b5060008a8152600360209081526040909120895161126092600c909201918b0190613f50565b5060008a8152600360205260409020600d0161127c8882614b46565b5060008a8152600360205260409020600e016112988782614b46565b5060008a8152600360205260409020600f016112b48682614b46565b5060008a81526003602052604090206010016112d08582614b46565b5060008a81526003602052604090206011016112ec8482614b46565b5060008a81526003602052604090206012016113088382614b46565b5060008a815260036020908152604090912060028101805460ff60a01b1916600160a01b179055825161134392601390920191840190613f50565b507f57551da443eabe56020121e95464e228f6f7cabaf10cce8ca84a1229706991ad600360008c81526020019081526020016000206001016040516113889190614c06565b60405180910390a150505050505050505050565b60008581526003602052604090206018016113b78582614b46565b5060008581526003602052604090206019016113d38482614b46565b506000858152600360205260409020601a016113ef8382614b46565b506000858152600360209081526040909120825161141592601b90920191840190613f50565b506000858152600360208190526040909120600201805460ff60a01b1916600160a01b835b02179055507f9ff1ea8670bd682da798bc2045481ed14191d52fb0d625a3a8cfbff438b41556600360008781526020019081526020016000206001016040516114839190614c06565b60405180910390a15050505050565b61149a613e57565b6000838152600360205260409020601c016114b58382614b46565b506000838152600360205260409081902060028101805460ff60a01b1916600160a21b17905590517fcd4be5048c19b9ba30c4d18f6e74f9d40ecf419733b6f26bb4f55b4eed92e4529161150e91600190910190614c06565b60405180910390a1600060036000858152602001908152602001600020604051806103c00160405290816000820154815260200160018201805461155190614abd565b80601f016020809104026020016040519081016040528092919081815260200182805461157d90614abd565b80156115ca5780601f1061159f576101008083540402835291602001916115ca565b820191906000526020600020905b8154815290600101906020018083116115ad57829003601f168201915b505050918352505060028201546001600160a01b0381166020830152604090910190600160a01b900460ff16600481111561160757611607614074565b600481111561161857611618614074565b815260200160038201805461162c90614abd565b80601f016020809104026020016040519081016040528092919081815260200182805461165890614abd565b80156116a55780601f1061167a576101008083540402835291602001916116a5565b820191906000526020600020905b81548152906001019060200180831161168857829003601f168201915b505050505081526020016004820180546116be90614abd565b80601f01602080910402602001604051908101604052809291908181526020018280546116ea90614abd565b80156117375780601f1061170c57610100808354040283529160200191611737565b820191906000526020600020905b81548152906001019060200180831161171a57829003601f168201915b5050505050815260200160058201805461175090614abd565b80601f016020809104026020016040519081016040528092919081815260200182805461177c90614abd565b80156117c95780601f1061179e576101008083540402835291602001916117c9565b820191906000526020600020905b8154815290600101906020018083116117ac57829003601f168201915b505050505081526020016006820180546117e290614abd565b80601f016020809104026020016040519081016040528092919081815260200182805461180e90614abd565b801561185b5780601f106118305761010080835404028352916020019161185b565b820191906000526020600020905b81548152906001019060200180831161183e57829003601f168201915b5050505050815260200160078201805461187490614abd565b80601f01602080910402602001604051908101604052809291908181526020018280546118a090614abd565b80156118ed5780601f106118c2576101008083540402835291602001916118ed565b820191906000526020600020905b8154815290600101906020018083116118d057829003601f168201915b505050505081526020016008820154815260200160098201805480602002602001604051908101604052809291908181526020016000905b828210156119d157838290600052602060002001805461194490614abd565b80601f016020809104026020016040519081016040528092919081815260200182805461197090614abd565b80156119bd5780601f10611992576101008083540402835291602001916119bd565b820191906000526020600020905b8154815290600101906020018083116119a057829003601f168201915b505050505081526020019060010190611925565b505050508152602001600a820180546119e990614abd565b80601f0160208091040260200160405190810160405280929190818152602001828054611a1590614abd565b8015611a625780601f10611a3757610100808354040283529160200191611a62565b820191906000526020600020905b815481529060010190602001808311611a4557829003601f168201915b50505050508152602001600b82018054611a7b90614abd565b80601f0160208091040260200160405190810160405280929190818152602001828054611aa790614abd565b8015611af45780601f10611ac957610100808354040283529160200191611af4565b820191906000526020600020905b815481529060010190602001808311611ad757829003601f168201915b50505050508152602001600c8201805480602002602001604051908101604052809291908181526020016000905b82821015611bce578382906000526020600020018054611b4190614abd565b80601f0160208091040260200160405190810160405280929190818152602001828054611b6d90614abd565b8015611bba5780601f10611b8f57610100808354040283529160200191611bba565b820191906000526020600020905b815481529060010190602001808311611b9d57829003601f168201915b505050505081526020019060010190611b22565b505050508152602001600d82018054611be690614abd565b80601f0160208091040260200160405190810160405280929190818152602001828054611c1290614abd565b8015611c5f5780601f10611c3457610100808354040283529160200191611c5f565b820191906000526020600020905b815481529060010190602001808311611c4257829003601f168201915b50505050508152602001600e82018054611c7890614abd565b80601f0160208091040260200160405190810160405280929190818152602001828054611ca490614abd565b8015611cf15780601f10611cc657610100808354040283529160200191611cf1565b820191906000526020600020905b815481529060010190602001808311611cd457829003601f168201915b50505050508152602001600f82018054611d0a90614abd565b80601f0160208091040260200160405190810160405280929190818152602001828054611d3690614abd565b8015611d835780601f10611d5857610100808354040283529160200191611d83565b820191906000526020600020905b815481529060010190602001808311611d6657829003601f168201915b50505050508152602001601082018054611d9c90614abd565b80601f0160208091040260200160405190810160405280929190818152602001828054611dc890614abd565b8015611e155780601f10611dea57610100808354040283529160200191611e15565b820191906000526020600020905b815481529060010190602001808311611df857829003601f168201915b50505050508152602001601182018054611e2e90614abd565b80601f0160208091040260200160405190810160405280929190818152602001828054611e5a90614abd565b8015611ea75780601f10611e7c57610100808354040283529160200191611ea7565b820191906000526020600020905b815481529060010190602001808311611e8a57829003601f168201915b50505050508152602001601282018054611ec090614abd565b80601f0160208091040260200160405190810160405280929190818152602001828054611eec90614abd565b8015611f395780601f10611f0e57610100808354040283529160200191611f39565b820191906000526020600020905b815481529060010190602001808311611f1c57829003601f168201915b5050505050815260200160138201805480602002602001604051908101604052809291908181526020016000905b82821015612013578382906000526020600020018054611f8690614abd565b80601f0160208091040260200160405190810160405280929190818152602001828054611fb290614abd565b8015611fff5780601f10611fd457610100808354040283529160200191611fff565b820191906000526020600020905b815481529060010190602001808311611fe257829003601f168201915b505050505081526020019060010190611f67565b50505050815260200160148201805461202b90614abd565b80601f016020809104026020016040519081016040528092919081815260200182805461205790614abd565b80156120a45780601f10612079576101008083540402835291602001916120a4565b820191906000526020600020905b81548152906001019060200180831161208757829003601f168201915b505050505081526020016015820180546120bd90614abd565b80601f01602080910402602001604051908101604052809291908181526020018280546120e990614abd565b80156121365780601f1061210b57610100808354040283529160200191612136565b820191906000526020600020905b81548152906001019060200180831161211957829003601f168201915b5050505050815260200160168201805461214f90614abd565b80601f016020809104026020016040519081016040528092919081815260200182805461217b90614abd565b80156121c85780601f1061219d576101008083540402835291602001916121c8565b820191906000526020600020905b8154815290600101906020018083116121ab57829003601f168201915b505050505081526020016017820180546121e190614abd565b80601f016020809104026020016040519081016040528092919081815260200182805461220d90614abd565b801561225a5780601f1061222f5761010080835404028352916020019161225a565b820191906000526020600020905b81548152906001019060200180831161223d57829003601f168201915b5050505050815260200160188201805461227390614abd565b80601f016020809104026020016040519081016040528092919081815260200182805461229f90614abd565b80156122ec5780601f106122c1576101008083540402835291602001916122ec565b820191906000526020600020905b8154815290600101906020018083116122cf57829003601f168201915b5050505050815260200160198201805461230590614abd565b80601f016020809104026020016040519081016040528092919081815260200182805461233190614abd565b801561237e5780601f106123535761010080835404028352916020019161237e565b820191906000526020600020905b81548152906001019060200180831161236157829003601f168201915b50505050508152602001601a8201805461239790614abd565b80601f01602080910402602001604051908101604052809291908181526020018280546123c390614abd565b80156124105780601f106123e557610100808354040283529160200191612410565b820191906000526020600020905b8154815290600101906020018083116123f357829003601f168201915b50505050508152602001601b8201805480602002602001604051908101604052809291908181526020016000905b828210156124ea57838290600052602060002001805461245d90614abd565b80601f016020809104026020016040519081016040528092919081815260200182805461248990614abd565b80156124d65780601f106124ab576101008083540402835291602001916124d6565b820191906000526020600020905b8154815290600101906020018083116124b957829003601f168201915b50505050508152602001906001019061243e565b505050508152602001601c8201805461250290614abd565b80601f016020809104026020016040519081016040528092919081815260200182805461252e90614abd565b801561257b5780601f106125505761010080835404028352916020019161257b565b820191906000526020600020905b81548152906001019060200180831161255e57829003601f168201915b50505091909252509193505050505b92915050565b6060600060025467ffffffffffffffff8111156125af576125af614432565b6040519080825280602002602001820160405280156125e257816020015b60608152602001906001900390816125cd5790505b509050600080805b600254811015612669576125ff816001614ca7565b6000818152600360205260408120600201549193509061262890600160a01b900460ff16613d00565b90508085858151811061263d5761263d614cba565b6020908102919091010152612653600185614ca7565b935050808061266190614cd0565b9150506125ea565b50919392505050565b6060600060025467ffffffffffffffff81111561269157612691614432565b6040519080825280602002602001820160405280156126c457816020015b60608152602001906001900390816126af5790505b509050600080805b600254811015612669576126e1816001614ca7565b6000818152600360205260409020600101805491935090819061270390614abd565b80601f016020809104026020016040519081016040528092919081815260200182805461272f90614abd565b801561277c5780601f106127515761010080835404028352916020019161277c565b820191906000526020600020905b81548152906001019060200180831161275f57829003601f168201915b505050505085858151811061279357612793614cba565b60209081029190910101526127a9600185614ca7565b93505080806127b790614cd0565b9150506126cc565b60008581526003602052604090206014016127da8582614b46565b5060008581526003602052604090206015016127f68482614b46565b5060008581526003602052604090206016016128128382614b46565b50600085815260036020526040902060170161282e8282614b46565b5060008581526003602052604090206002908101805460ff60a01b1916600160a01b8361143a565b600254612864906001614ca7565b60025561286f613e57565b60025480825260208083018d81526001600160a01b038d16604080860191909152600060608601819052608086018e905260a086018d9052610100860187905260c086018c905260e086018b905261012086018a9052610140860189905261016086018890529384526003909252912082518155905182919060018201906128f79082614b46565b5060408201516002820180546001600160a01b039092166001600160a01b03198316811782556060850151926001600160a81b03191617600160a01b83600481111561294557612945614074565b02179055506080820151600382019061295e9082614b46565b5060a082015160048201906129739082614b46565b5060c082015160058201906129889082614b46565b5060e0820151600682019061299d9082614b46565b5061010082015160078201906129b39082614b46565b50610120820151600882015561014082015180516129db916009840191602090910190613f50565b50610160820151600a8201906129f19082614b46565b50610180820151600b820190612a079082614b46565b506101a08201518051612a2491600c840191602090910190613f50565b506101c0820151600d820190612a3a9082614b46565b506101e0820151600e820190612a509082614b46565b50610200820151600f820190612a669082614b46565b506102208201516010820190612a7c9082614b46565b506102408201516011820190612a929082614b46565b506102608201516012820190612aa89082614b46565b506102808201518051612ac5916013840191602090910190613f50565b506102a08201516014820190612adb9082614b46565b506102c08201516015820190612af19082614b46565b506102e08201516016820190612b079082614b46565b506103008201516017820190612b1d9082614b46565b506103208201516018820190612b339082614b46565b506103408201516019820190612b499082614b46565b50610360820151601a820190612b5f9082614b46565b506103808201518051612b7c91601b840191602090910190613f50565b506103a0820151601c820190612b929082614b46565b509050507fdc53d68b91405cf526f6bc9ec0408db6a3e8b0d7512058a2923230b3900e2ee58b604051612bc59190614ce9565b60405180910390a15050505050505050505050565b6060600060025467ffffffffffffffff811115612bf957612bf9614432565b604051908082528060200260200182016040528015612c3257816020015b612c1f613e57565b815260200190600190039081612c175790505b509050600080805b60025481101561266957612c4f816001614ca7565b9150600060036000848152602001908152602001600020905080604051806103c001604052908160008201548152602001600182018054612c8f90614abd565b80601f0160208091040260200160405190810160405280929190818152602001828054612cbb90614abd565b8015612d085780601f10612cdd57610100808354040283529160200191612d08565b820191906000526020600020905b815481529060010190602001808311612ceb57829003601f168201915b505050918352505060028201546001600160a01b0381166020830152604090910190600160a01b900460ff166004811115612d4557612d45614074565b6004811115612d5657612d56614074565b8152602001600382018054612d6a90614abd565b80601f0160208091040260200160405190810160405280929190818152602001828054612d9690614abd565b8015612de35780601f10612db857610100808354040283529160200191612de3565b820191906000526020600020905b815481529060010190602001808311612dc657829003601f168201915b50505050508152602001600482018054612dfc90614abd565b80601f0160208091040260200160405190810160405280929190818152602001828054612e2890614abd565b8015612e755780601f10612e4a57610100808354040283529160200191612e75565b820191906000526020600020905b815481529060010190602001808311612e5857829003601f168201915b50505050508152602001600582018054612e8e90614abd565b80601f0160208091040260200160405190810160405280929190818152602001828054612eba90614abd565b8015612f075780601f10612edc57610100808354040283529160200191612f07565b820191906000526020600020905b815481529060010190602001808311612eea57829003601f168201915b50505050508152602001600682018054612f2090614abd565b80601f0160208091040260200160405190810160405280929190818152602001828054612f4c90614abd565b8015612f995780601f10612f6e57610100808354040283529160200191612f99565b820191906000526020600020905b815481529060010190602001808311612f7c57829003601f168201915b50505050508152602001600782018054612fb290614abd565b80601f0160208091040260200160405190810160405280929190818152602001828054612fde90614abd565b801561302b5780601f106130005761010080835404028352916020019161302b565b820191906000526020600020905b81548152906001019060200180831161300e57829003601f168201915b505050505081526020016008820154815260200160098201805480602002602001604051908101604052809291908181526020016000905b8282101561310f57838290600052602060002001805461308290614abd565b80601f01602080910402602001604051908101604052809291908181526020018280546130ae90614abd565b80156130fb5780601f106130d0576101008083540402835291602001916130fb565b820191906000526020600020905b8154815290600101906020018083116130de57829003601f168201915b505050505081526020019060010190613063565b505050508152602001600a8201805461312790614abd565b80601f016020809104026020016040519081016040528092919081815260200182805461315390614abd565b80156131a05780601f10613175576101008083540402835291602001916131a0565b820191906000526020600020905b81548152906001019060200180831161318357829003601f168201915b50505050508152602001600b820180546131b990614abd565b80601f01602080910402602001604051908101604052809291908181526020018280546131e590614abd565b80156132325780601f1061320757610100808354040283529160200191613232565b820191906000526020600020905b81548152906001019060200180831161321557829003601f168201915b50505050508152602001600c8201805480602002602001604051908101604052809291908181526020016000905b8282101561330c57838290600052602060002001805461327f90614abd565b80601f01602080910402602001604051908101604052809291908181526020018280546132ab90614abd565b80156132f85780601f106132cd576101008083540402835291602001916132f8565b820191906000526020600020905b8154815290600101906020018083116132db57829003601f168201915b505050505081526020019060010190613260565b505050508152602001600d8201805461332490614abd565b80601f016020809104026020016040519081016040528092919081815260200182805461335090614abd565b801561339d5780601f106133725761010080835404028352916020019161339d565b820191906000526020600020905b81548152906001019060200180831161338057829003601f168201915b50505050508152602001600e820180546133b690614abd565b80601f01602080910402602001604051908101604052809291908181526020018280546133e290614abd565b801561342f5780601f106134045761010080835404028352916020019161342f565b820191906000526020600020905b81548152906001019060200180831161341257829003601f168201915b50505050508152602001600f8201805461344890614abd565b80601f016020809104026020016040519081016040528092919081815260200182805461347490614abd565b80156134c15780601f10613496576101008083540402835291602001916134c1565b820191906000526020600020905b8154815290600101906020018083116134a457829003601f168201915b505050505081526020016010820180546134da90614abd565b80601f016020809104026020016040519081016040528092919081815260200182805461350690614abd565b80156135535780601f1061352857610100808354040283529160200191613553565b820191906000526020600020905b81548152906001019060200180831161353657829003601f168201915b5050505050815260200160118201805461356c90614abd565b80601f016020809104026020016040519081016040528092919081815260200182805461359890614abd565b80156135e55780601f106135ba576101008083540402835291602001916135e5565b820191906000526020600020905b8154815290600101906020018083116135c857829003601f168201915b505050505081526020016012820180546135fe90614abd565b80601f016020809104026020016040519081016040528092919081815260200182805461362a90614abd565b80156136775780601f1061364c57610100808354040283529160200191613677565b820191906000526020600020905b81548152906001019060200180831161365a57829003601f168201915b5050505050815260200160138201805480602002602001604051908101604052809291908181526020016000905b828210156137515783829060005260206000200180546136c490614abd565b80601f01602080910402602001604051908101604052809291908181526020018280546136f090614abd565b801561373d5780601f106137125761010080835404028352916020019161373d565b820191906000526020600020905b81548152906001019060200180831161372057829003601f168201915b5050505050815260200190600101906136a5565b50505050815260200160148201805461376990614abd565b80601f016020809104026020016040519081016040528092919081815260200182805461379590614abd565b80156137e25780601f106137b7576101008083540402835291602001916137e2565b820191906000526020600020905b8154815290600101906020018083116137c557829003601f168201915b505050505081526020016015820180546137fb90614abd565b80601f016020809104026020016040519081016040528092919081815260200182805461382790614abd565b80156138745780601f1061384957610100808354040283529160200191613874565b820191906000526020600020905b81548152906001019060200180831161385757829003601f168201915b5050505050815260200160168201805461388d90614abd565b80601f01602080910402602001604051908101604052809291908181526020018280546138b990614abd565b80156139065780601f106138db57610100808354040283529160200191613906565b820191906000526020600020905b8154815290600101906020018083116138e957829003601f168201915b5050505050815260200160178201805461391f90614abd565b80601f016020809104026020016040519081016040528092919081815260200182805461394b90614abd565b80156139985780601f1061396d57610100808354040283529160200191613998565b820191906000526020600020905b81548152906001019060200180831161397b57829003601f168201915b505050505081526020016018820180546139b190614abd565b80601f01602080910402602001604051908101604052809291908181526020018280546139dd90614abd565b8015613a2a5780601f106139ff57610100808354040283529160200191613a2a565b820191906000526020600020905b815481529060010190602001808311613a0d57829003601f168201915b50505050508152602001601982018054613a4390614abd565b80601f0160208091040260200160405190810160405280929190818152602001828054613a6f90614abd565b8015613abc5780601f10613a9157610100808354040283529160200191613abc565b820191906000526020600020905b815481529060010190602001808311613a9f57829003601f168201915b50505050508152602001601a82018054613ad590614abd565b80601f0160208091040260200160405190810160405280929190818152602001828054613b0190614abd565b8015613b4e5780601f10613b2357610100808354040283529160200191613b4e565b820191906000526020600020905b815481529060010190602001808311613b3157829003601f168201915b50505050508152602001601b8201805480602002602001604051908101604052809291908181526020016000905b82821015613c28578382906000526020600020018054613b9b90614abd565b80601f0160208091040260200160405190810160405280929190818152602001828054613bc790614abd565b8015613c145780601f10613be957610100808354040283529160200191613c14565b820191906000526020600020905b815481529060010190602001808311613bf757829003601f168201915b505050505081526020019060010190613b7c565b505050508152602001601c82018054613c4090614abd565b80601f0160208091040260200160405190810160405280929190818152602001828054613c6c90614abd565b8015613cb95780601f10613c8e57610100808354040283529160200191613cb9565b820191906000526020600020905b815481529060010190602001808311613c9c57829003601f168201915b505050505081525050858581518110613cd457613cd4614cba565b6020908102919091010152613cea600185614ca7565b9350508080613cf890614cd0565b915050612c3a565b6060816000816004811115613d1757613d17614074565b03613d4357505060408051808201909152600981526812185c9d995cdd195960ba1b6020820152919050565b6001816004811115613d5757613d57614074565b03613d8457505060408051808201909152600a81526950726f63657373696e6760b01b6020820152919050565b6002816004811115613d9857613d98614074565b03613dc257505060408051808201909152600781526648756c6c696e6760c81b6020820152919050565b6003816004811115613dd657613dd6614074565b03613e01575050604080518082019091526008815267526f617374696e6760c01b6020820152919050565b6004816004811115613e1557613e15614074565b03613e415750506040805180820190915260098152685061636b6167696e6760b81b6020820152919050565b5050604080516020810190915260008152919050565b604051806103c00160405280600081526020016060815260200160006001600160a01b0316815260200160006004811115613e9457613e94614074565b815260200160608152602001606081526020016060815260200160608152602001606081526020016000815260200160608152602001606081526020016060815260200160608152602001606081526020016060815260200160608152602001606081526020016060815260200160608152602001606081526020016060815260200160608152602001606081526020016060815260200160608152602001606081526020016060815260200160608152602001606081525090565b828054828255906000526020600020908101928215613f96579160200282015b82811115613f965782518290613f869082614b46565b5091602001919060010190613f70565b50613fa2929150613fa6565b5090565b80821115613fa2576000613fba8282613fc3565b50600101613fa6565b508054613fcf90614abd565b6000825580601f10613fdf575050565b601f016020900490600052602060002090810190613ffd9190614000565b50565b5b80821115613fa25760008155600101614001565b60006020828403121561402757600080fd5b5035919050565b6000815180845260005b8181101561405457602081850181015186830182015201614038565b506000602082860101526020601f19601f83011685010191505092915050565b634e487b7160e01b600052602160045260246000fd5b600581106140a857634e487b7160e01b600052602160045260246000fd5b9052565b600081518084526020808501808196508360051b8101915082860160005b858110156140f45782840389526140e284835161402e565b988501989350908401906001016140ca565b5091979650505050505050565b60006103c08251845260208301518160208601526141218286018261402e565b915050604083015161413e60408601826001600160a01b03169052565b506060830151614151606086018261408a565b5060808301518482036080860152614169828261402e565b91505060a083015184820360a0860152614183828261402e565b91505060c083015184820360c086015261419d828261402e565b91505060e083015184820360e08601526141b7828261402e565b91505061010080840151858303828701526141d2838261402e565b9250505061012080840151818601525061014080840151858303828701526141fa83826140ac565b925050506101608084015185830382870152614216838261402e565b925050506101808084015185830382870152614232838261402e565b925050506101a0808401518583038287015261424e83826140ac565b925050506101c0808401518583038287015261426a838261402e565b925050506101e08084015185830382870152614286838261402e565b9250505061020080840151858303828701526142a2838261402e565b9250505061022080840151858303828701526142be838261402e565b9250505061024080840151858303828701526142da838261402e565b9250505061026080840151858303828701526142f6838261402e565b92505050610280808401518583038287015261431283826140ac565b925050506102a0808401518583038287015261432e838261402e565b925050506102c0808401518583038287015261434a838261402e565b925050506102e08084015185830382870152614366838261402e565b925050506103008084015185830382870152614382838261402e565b92505050610320808401518583038287015261439e838261402e565b9250505061034080840151858303828701526143ba838261402e565b9250505061036080840151858303828701526143d6838261402e565b9250505061038080840151858303828701526143f283826140ac565b925050506103a0808401518583038287015261440e838261402e565b9695505050505050565b60208152600061442b6020830184614101565b9392505050565b634e487b7160e01b600052604160045260246000fd5b604051601f8201601f1916810167ffffffffffffffff8111828210171561447157614471614432565b604052919050565b600082601f83011261448a57600080fd5b813567ffffffffffffffff8111156144a4576144a4614432565b6144b7601f8201601f1916602001614448565b8181528460208386010111156144cc57600080fd5b816020850160208301376000918101602001919091529392505050565b600082601f8301126144fa57600080fd5b8135602067ffffffffffffffff8083111561451757614517614432565b8260051b614526838201614448565b938452858101830193838101908886111561454057600080fd5b84880192505b8583101561457c5782358481111561455e5760008081fd5b61456c8a87838c0101614479565b8352509184019190840190614546565b98975050505050505050565b6000806000806000806000806000806101408b8d0312156145a857600080fd5b8a35995060208b013567ffffffffffffffff808211156145c757600080fd5b6145d38e838f01614479565b9a5060408d01359150808211156145e957600080fd5b6145f58e838f016144e9565b995060608d013591508082111561460b57600080fd5b6146178e838f01614479565b985060808d013591508082111561462d57600080fd5b6146398e838f01614479565b975060a08d013591508082111561464f57600080fd5b61465b8e838f01614479565b965060c08d013591508082111561467157600080fd5b61467d8e838f01614479565b955060e08d013591508082111561469357600080fd5b61469f8e838f01614479565b94506101008d01359150808211156146b657600080fd5b6146c28e838f01614479565b93506101208d01359150808211156146d957600080fd5b506146e68d828e016144e9565b9150509295989b9194979a5092959850565b600080600080600060a0868803121561471057600080fd5b85359450602086013567ffffffffffffffff8082111561472f57600080fd5b61473b89838a01614479565b9550604088013591508082111561475157600080fd5b61475d89838a01614479565b9450606088013591508082111561477357600080fd5b61477f89838a01614479565b9350608088013591508082111561479557600080fd5b506147a2888289016144e9565b9150509295509295909350565b600080604083850312156147c257600080fd5b82359150602083013567ffffffffffffffff8111156147e057600080fd5b6147ec85828601614479565b9150509250929050565b6000602080830181845280855180835260408601915060408160051b870101925083870160005b8281101561484b57603f1988860301845261483985835161402e565b9450928501929085019060010161481d565b5092979650505050505050565b600080600080600060a0868803121561487057600080fd5b85359450602086013567ffffffffffffffff8082111561488f57600080fd5b61489b89838a01614479565b955060408801359150808211156148b157600080fd5b6148bd89838a01614479565b945060608801359150808211156148d357600080fd5b6148df89838a01614479565b935060808801359150808211156148f557600080fd5b506147a288828901614479565b80356001600160a01b038116811461491957600080fd5b919050565b6000806000806000806000806000806101408b8d03121561493e57600080fd5b8a3567ffffffffffffffff8082111561495657600080fd5b6149628e838f01614479565b9b5061497060208e01614902565b9a5060408d013591508082111561498657600080fd5b6149928e838f01614479565b995060608d01359150808211156149a857600080fd5b6149b48e838f01614479565b985060808d01359150808211156149ca57600080fd5b6149d68e838f01614479565b975060a08d01359150808211156149ec57600080fd5b6149f88e838f01614479565b965060c08d0135955060e08d0135915080821115614a1557600080fd5b614a218e838f016144e9565b94506101008d0135915080821115614a3857600080fd5b614a448e838f01614479565b93506101208d0135915080821115614a5b57600080fd5b506146e68d828e01614479565b6000602080830181845280855180835260408601915060408160051b870101925083870160005b8281101561484b57603f19888603018452614aab858351614101565b94509285019290850190600101614a8f565b600181811c90821680614ad157607f821691505b602082108103614af157634e487b7160e01b600052602260045260246000fd5b50919050565b601f821115614b4157600081815260208120601f850160051c81016020861015614b1e5750805b601f850160051c820191505b81811015614b3d57828155600101614b2a565b5050505b505050565b815167ffffffffffffffff811115614b6057614b60614432565b614b7481614b6e8454614abd565b84614af7565b602080601f831160018114614ba95760008415614b915750858301515b600019600386901b1c1916600185901b178555614b3d565b600085815260208120601f198616915b82811015614bd857888601518255948401946001909101908401614bb9565b5085821015614bf65787850151600019600388901b60f8161c191681555b5050505050600190811b01905550565b6000602080835260008454614c1a81614abd565b80848701526040600180841660008114614c3b5760018114614c5557614c83565b60ff1985168984015283151560051b890183019550614c83565b896000528660002060005b85811015614c7b5781548b8201860152908301908801614c60565b8a0184019650505b509398975050505050505050565b634e487b7160e01b600052601160045260246000fd5b8082018082111561258a5761258a614c91565b634e487b7160e01b600052603260045260246000fd5b600060018201614ce257614ce2614c91565b5060010190565b60208152600061442b602083018461402e56fea26469706673582212201dd23a406bbc0d32393ae93679e67209a11c8a93be9747ae436e3428bd7b2e1464736f6c63430008120033",
  "linkReferences": {},
  "deployedLinkReferences": {}
}