{
  "_format": "hh-sol-artifact-1",
  "contractName": "Coffee2",
  "sourceName": "contracts/Coffee2.sol",
  "abi": [
    {
      "inputs": [],
      "stateMutability": "payable",
      "type": "constructor"
    },
    {
      "anonymous": false,
      "inputs": [
        {
          "indexed": false,
          "internalType": "string",
          "name": "upc",
          "type": "string"
        }
      ],
      "name": "Harvested",
      "type": "event"
    },
    {
      "anonymous": false,
      "inputs": [
        {
          "indexed": false,
          "internalType": "string",
          "name": "upc",
          "type": "string"
        }
      ],
      "name": "Packaged",
      "type": "event"
    },
    {
      "anonymous": false,
      "inputs": [
        {
          "indexed": false,
          "internalType": "string",
          "name": "upc",
          "type": "string"
        }
      ],
      "name": "Planted",
      "type": "event"
    },
    {
      "anonymous": false,
      "inputs": [
        {
          "indexed": false,
          "internalType": "string",
          "name": "upc",
          "type": "string"
        }
      ],
      "name": "Processed",
      "type": "event"
    },
    {
      "anonymous": false,
      "inputs": [
        {
          "indexed": false,
          "internalType": "string",
          "name": "upc",
          "type": "string"
        }
      ],
      "name": "Roasted",
      "type": "event"
    },
    {
      "inputs": [
        {
          "internalType": "string",
          "name": "_upc",
          "type": "string"
        },
        {
          "internalType": "address",
          "name": "_pAdd",
          "type": "address"
        },
        {
          "internalType": "string",
          "name": "_s_variety",
          "type": "string"
        },
        {
          "internalType": "string",
          "name": "_s_temp",
          "type": "string"
        },
        {
          "internalType": "string",
          "name": "_s_region",
          "type": "string"
        },
        {
          "internalType": "string",
          "name": "_s_elevation",
          "type": "string"
        },
        {
          "internalType": "uint256",
          "name": "_s_soiltype",
          "type": "uint256"
        },
        {
          "internalType": "string[]",
          "name": "_s_images",
          "type": "string[]"
        },
        {
          "internalType": "string",
          "name": "_s_date",
          "type": "string"
        },
        {
          "internalType": "string",
          "name": "_s_flowering",
          "type": "string"
        }
      ],
      "name": "addbatch",
      "outputs": [],
      "stateMutability": "payable",
      "type": "function"
    },
    {
      "inputs": [],
      "name": "getInv",
      "outputs": [
        {
          "components": [
            {
              "internalType": "uint256",
              "name": "sku",
              "type": "uint256"
            },
            {
              "internalType": "string",
              "name": "upc",
              "type": "string"
            },
            {
              "internalType": "address",
              "name": "pAdd",
              "type": "address"
            },
            {
              "internalType": "enum Coffee2.State",
              "name": "itemState",
              "type": "uint8"
            },
            {
              "internalType": "string",
              "name": "s_variety",
              "type": "string"
            },
            {
              "internalType": "string",
              "name": "s_temp",
              "type": "string"
            },
            {
              "internalType": "string",
              "name": "s_region",
              "type": "string"
            },
            {
              "internalType": "string",
              "name": "s_elevation",
              "type": "string"
            },
            {
              "internalType": "string",
              "name": "s_flowering",
              "type": "string"
            },
            {
              "internalType": "uint256",
              "name": "s_soiltype",
              "type": "uint256"
            },
            {
              "internalType": "string[]",
              "name": "s_imgs",
              "type": "string[]"
            },
            {
              "internalType": "string",
              "name": "s_date",
              "type": "string"
            },
            {
              "internalType": "string",
              "name": "p_ptype",
              "type": "string"
            },
            {
              "internalType": "string[]",
              "name": "p_params",
              "type": "string[]"
            },
            {
              "internalType": "string",
              "name": "p_pulpdate",
              "type": "string"
            },
            {
              "internalType": "string",
              "name": "p_dtabledate",
              "type": "string"
            },
            {
              "internalType": "string",
              "name": "p_dcompdate",
              "type": "string"
            },
            {
              "internalType": "string",
              "name": "p_dparams",
              "type": "string"
            },
            {
              "internalType": "string",
              "name": "p_bdate",
              "type": "string"
            },
            {
              "internalType": "string",
              "name": "p_spackdate",
              "type": "string"
            },
            {
              "internalType": "string[]",
              "name": "p_imgs",
              "type": "string[]"
            },
            {
              "internalType": "string",
              "name": "h_resttime",
              "type": "string"
            },
            {
              "internalType": "string",
              "name": "h_startdate",
              "type": "string"
            },
            {
              "internalType": "string",
              "name": "h_gradesize",
              "type": "string"
            },
            {
              "internalType": "string",
              "name": "h_baggingdetails",
              "type": "string"
            },
            {
              "internalType": "string",
              "name": "r_date",
              "type": "string"
            },
            {
              "internalType": "string",
              "name": "r_degasstime",
              "type": "string"
            },
            {
              "internalType": "string",
              "name": "r_flavourp",
              "type": "string"
            },
            {
              "internalType": "string[]",
              "name": "r_imgs",
              "type": "string[]"
            },
            {
              "internalType": "string",
              "name": "m_date",
              "type": "string"
            }
          ],
          "internalType": "struct Coffee2.Batch[]",
          "name": "",
          "type": "tuple[]"
        }
      ],
      "stateMutability": "view",
      "type": "function"
    },
    {
      "inputs": [],
      "name": "getItems",
      "outputs": [
        {
          "internalType": "uint256",
          "name": "",
          "type": "uint256"
        }
      ],
      "stateMutability": "view",
      "type": "function"
    },
    {
      "inputs": [
        {
          "internalType": "uint256",
          "name": "sku",
          "type": "uint256"
        }
      ],
      "name": "getinfo2",
      "outputs": [
        {
          "components": [
            {
              "internalType": "uint256",
              "name": "sku",
              "type": "uint256"
            },
            {
              "internalType": "string",
              "name": "upc",
              "type": "string"
            },
            {
              "internalType": "address",
              "name": "pAdd",
              "type": "address"
            },
            {
              "internalType": "enum Coffee2.State",
              "name": "itemState",
              "type": "uint8"
            },
            {
              "internalType": "string",
              "name": "s_variety",
              "type": "string"
            },
            {
              "internalType": "string",
              "name": "s_temp",
              "type": "string"
            },
            {
              "internalType": "string",
              "name": "s_region",
              "type": "string"
            },
            {
              "internalType": "string",
              "name": "s_elevation",
              "type": "string"
            },
            {
              "internalType": "string",
              "name": "s_flowering",
              "type": "string"
            },
            {
              "internalType": "uint256",
              "name": "s_soiltype",
              "type": "uint256"
            },
            {
              "internalType": "string[]",
              "name": "s_imgs",
              "type": "string[]"
            },
            {
              "internalType": "string",
              "name": "s_date",
              "type": "string"
            },
            {
              "internalType": "string",
              "name": "p_ptype",
              "type": "string"
            },
            {
              "internalType": "string[]",
              "name": "p_params",
              "type": "string[]"
            },
            {
              "internalType": "string",
              "name": "p_pulpdate",
              "type": "string"
            },
            {
              "internalType": "string",
              "name": "p_dtabledate",
              "type": "string"
            },
            {
              "internalType": "string",
              "name": "p_dcompdate",
              "type": "string"
            },
            {
              "internalType": "string",
              "name": "p_dparams",
              "type": "string"
            },
            {
              "internalType": "string",
              "name": "p_bdate",
              "type": "string"
            },
            {
              "internalType": "string",
              "name": "p_spackdate",
              "type": "string"
            },
            {
              "internalType": "string[]",
              "name": "p_imgs",
              "type": "string[]"
            },
            {
              "internalType": "string",
              "name": "h_resttime",
              "type": "string"
            },
            {
              "internalType": "string",
              "name": "h_startdate",
              "type": "string"
            },
            {
              "internalType": "string",
              "name": "h_gradesize",
              "type": "string"
            },
            {
              "internalType": "string",
              "name": "h_baggingdetails",
              "type": "string"
            },
            {
              "internalType": "string",
              "name": "r_date",
              "type": "string"
            },
            {
              "internalType": "string",
              "name": "r_degasstime",
              "type": "string"
            },
            {
              "internalType": "string",
              "name": "r_flavourp",
              "type": "string"
            },
            {
              "internalType": "string[]",
              "name": "r_imgs",
              "type": "string[]"
            },
            {
              "internalType": "string",
              "name": "m_date",
              "type": "string"
            }
          ],
          "internalType": "struct Coffee2.Batch",
          "name": "",
          "type": "tuple"
        }
      ],
      "stateMutability": "view",
      "type": "function"
    },
    {
      "inputs": [],
      "name": "getstates",
      "outputs": [
        {
          "internalType": "string[]",
          "name": "",
          "type": "string[]"
        }
      ],
      "stateMutability": "view",
      "type": "function"
    },
    {
      "inputs": [],
      "name": "getupcs",
      "outputs": [
        {
          "internalType": "string[]",
          "name": "",
          "type": "string[]"
        }
      ],
      "stateMutability": "view",
      "type": "function"
    },
    {
      "inputs": [
        {
          "internalType": "uint256",
          "name": "_sku",
          "type": "uint256"
        },
        {
          "internalType": "string",
          "name": "_h_resttime",
          "type": "string"
        },
        {
          "internalType": "string",
          "name": "_h_startdate",
          "type": "string"
        },
        {
          "internalType": "string",
          "name": "_h_gradesize",
          "type": "string"
        },
        {
          "internalType": "string",
          "name": "_h_baggingdetails",
          "type": "string"
        }
      ],
      "name": "hulling",
      "outputs": [],
      "stateMutability": "payable",
      "type": "function"
    },
    {
      "inputs": [
        {
          "internalType": "uint256",
          "name": "_sku",
          "type": "uint256"
        },
        {
          "internalType": "string",
          "name": "_m_date",
          "type": "string"
        }
      ],
      "name": "packaging",
      "outputs": [
        {
          "components": [
            {
              "internalType": "uint256",
              "name": "sku",
              "type": "uint256"
            },
            {
              "internalType": "string",
              "name": "upc",
              "type": "string"
            },
            {
              "internalType": "address",
              "name": "pAdd",
              "type": "address"
            },
            {
              "internalType": "enum Coffee2.State",
              "name": "itemState",
              "type": "uint8"
            },
            {
              "internalType": "string",
              "name": "s_variety",
              "type": "string"
            },
            {
              "internalType": "string",
              "name": "s_temp",
              "type": "string"
            },
            {
              "internalType": "string",
              "name": "s_region",
              "type": "string"
            },
            {
              "internalType": "string",
              "name": "s_elevation",
              "type": "string"
            },
            {
              "internalType": "string",
              "name": "s_flowering",
              "type": "string"
            },
            {
              "internalType": "uint256",
              "name": "s_soiltype",
              "type": "uint256"
            },
            {
              "internalType": "string[]",
              "name": "s_imgs",
              "type": "string[]"
            },
            {
              "internalType": "string",
              "name": "s_date",
              "type": "string"
            },
            {
              "internalType": "string",
              "name": "p_ptype",
              "type": "string"
            },
            {
              "internalType": "string[]",
              "name": "p_params",
              "type": "string[]"
            },
            {
              "internalType": "string",
              "name": "p_pulpdate",
              "type": "string"
            },
            {
              "internalType": "string",
              "name": "p_dtabledate",
              "type": "string"
            },
            {
              "internalType": "string",
              "name": "p_dcompdate",
              "type": "string"
            },
            {
              "internalType": "string",
              "name": "p_dparams",
              "type": "string"
            },
            {
              "internalType": "string",
              "name": "p_bdate",
              "type": "string"
            },
            {
              "internalType": "string",
              "name": "p_spackdate",
              "type": "string"
            },
            {
              "internalType": "string[]",
              "name": "p_imgs",
              "type": "string[]"
            },
            {
              "internalType": "string",
              "name": "h_resttime",
              "type": "string"
            },
            {
              "internalType": "string",
              "name": "h_startdate",
              "type": "string"
            },
            {
              "internalType": "string",
              "name": "h_gradesize",
              "type": "string"
            },
            {
              "internalType": "string",
              "name": "h_baggingdetails",
              "type": "string"
            },
            {
              "internalType": "string",
              "name": "r_date",
              "type": "string"
            },
            {
              "internalType": "string",
              "name": "r_degasstime",
              "type": "string"
            },
            {
              "internalType": "string",
              "name": "r_flavourp",
              "type": "string"
            },
            {
              "internalType": "string[]",
              "name": "r_imgs",
              "type": "string[]"
            },
            {
              "internalType": "string",
              "name": "m_date",
              "type": "string"
            }
          ],
          "internalType": "struct Coffee2.Batch",
          "name": "",
          "type": "tuple"
        }
      ],
      "stateMutability": "payable",
      "type": "function"
    },
    {
      "inputs": [
        {
          "internalType": "uint256",
          "name": "_sku",
          "type": "uint256"
        },
        {
          "internalType": "string",
          "name": "_p_ptype",
          "type": "string"
        },
        {
          "internalType": "string[]",
          "name": "_p_params",
          "type": "string[]"
        },
        {
          "internalType": "string",
          "name": "_p_pulpdate",
          "type": "string"
        },
        {
          "internalType": "string",
          "name": "_p_dtabledate",
          "type": "string"
        },
        {
          "internalType": "string",
          "name": "_p_dcompdate",
          "type": "string"
        },
        {
          "internalType": "string",
          "name": "_p_dparams",
          "type": "string"
        },
        {
          "internalType": "string",
          "name": "_p_bdate",
          "type": "string"
        },
        {
          "internalType": "string",
          "name": "_p_spackdate",
          "type": "string"
        },
        {
          "internalType": "string[]",
          "name": "_p_imgs",
          "type": "string[]"
        }
      ],
      "name": "processing",
      "outputs": [],
      "stateMutability": "payable",
      "type": "function"
    },
    {
      "inputs": [
        {
          "internalType": "uint256",
          "name": "_sku",
          "type": "uint256"
        },
        {
          "internalType": "string",
          "name": "_r_date",
          "type": "string"
        },
        {
          "internalType": "string",
          "name": "_r_degasstime",
          "type": "string"
        },
        {
          "internalType": "string",
          "name": "_r_flavourp",
          "type": "string"
        },
        {
          "internalType": "string[]",
          "name": "_r_imgs",
          "type": "string[]"
        }
      ],
      "name": "roasting",
      "outputs": [],
      "stateMutability": "payable",
      "type": "function"
    }
  ],
  "bytecode": "0x600080546001600160a01b0319163317815560025560c0604052600460809081526342312e3160e01b60a0526001906200003a9082620000e6565b50620001b2565b634e487b7160e01b600052604160045260246000fd5b600181811c908216806200006c57607f821691505b6020821081036200008d57634e487b7160e01b600052602260045260246000fd5b50919050565b601f821115620000e157600081815260208120601f850160051c81016020861015620000bc5750805b601f850160051c820191505b81811015620000dd57828155600101620000c8565b5050505b505050565b81516001600160401b0381111562000102576200010262000041565b6200011a8162000113845462000057565b8462000093565b602080601f831160018114620001525760008415620001395750858301515b600019600386901b1c1916600185901b178555620000dd565b600085815260208120601f198616915b82811015620001835788860151825594840194600190910190840162000162565b5085821015620001a25787850151600019600388901b60f8161c191681555b5050505050600190811b01905550565b614cef80620001c26000396000f3fe6080604052600436106100915760003560e01c8063950ebf6211610059578063950ebf6214610125578063a94f122214610147578063f7b283ac1461015c578063fa1f9d471461016f578063fb1bf5d31461018257600080fd5b806318cf728a146100965780631ef92b0b146100cc5780632945ca34146100e1578063410d59cc146100f457806341ef5dbf14610112575b600080fd5b3480156100a257600080fd5b506100b66100b1366004613fd2565b6101a4565b6040516100c391906143d5565b60405180910390f35b6100df6100da366004614545565b61121f565b005b6100df6100ef3660046146b5565b611375565b34801561010057600080fd5b506002546040519081526020016100c3565b6100b661012036600461476c565b61146b565b34801561013157600080fd5b5061013a612569565b6040516100c391906147b3565b34801561015357600080fd5b5061013a61264b565b6100df61016a366004614815565b612798565b6100df61017d3660046148db565b612813565b34801561018e57600080fd5b50610197612b97565b6040516100c39190614a25565b6101ac613e14565b60036000838152602001908152602001600020604051806103c0016040529081600082015481526020016001820180546101e590614a7a565b80601f016020809104026020016040519081016040528092919081815260200182805461021190614a7a565b801561025e5780601f106102335761010080835404028352916020019161025e565b820191906000526020600020905b81548152906001019060200180831161024157829003601f168201915b505050918352505060028201546001600160a01b0381166020830152604090910190600160a01b900460ff16600481111561029b5761029b614031565b60048111156102ac576102ac614031565b81526020016003820180546102c090614a7a565b80601f01602080910402602001604051908101604052809291908181526020018280546102ec90614a7a565b80156103395780601f1061030e57610100808354040283529160200191610339565b820191906000526020600020905b81548152906001019060200180831161031c57829003601f168201915b5050505050815260200160048201805461035290614a7a565b80601f016020809104026020016040519081016040528092919081815260200182805461037e90614a7a565b80156103cb5780601f106103a0576101008083540402835291602001916103cb565b820191906000526020600020905b8154815290600101906020018083116103ae57829003601f168201915b505050505081526020016005820180546103e490614a7a565b80601f016020809104026020016040519081016040528092919081815260200182805461041090614a7a565b801561045d5780601f106104325761010080835404028352916020019161045d565b820191906000526020600020905b81548152906001019060200180831161044057829003601f168201915b5050505050815260200160068201805461047690614a7a565b80601f01602080910402602001604051908101604052809291908181526020018280546104a290614a7a565b80156104ef5780601f106104c4576101008083540402835291602001916104ef565b820191906000526020600020905b8154815290600101906020018083116104d257829003601f168201915b5050505050815260200160078201805461050890614a7a565b80601f016020809104026020016040519081016040528092919081815260200182805461053490614a7a565b80156105815780601f1061055657610100808354040283529160200191610581565b820191906000526020600020905b81548152906001019060200180831161056457829003601f168201915b505050505081526020016008820154815260200160098201805480602002602001604051908101604052809291908181526020016000905b828210156106655783829060005260206000200180546105d890614a7a565b80601f016020809104026020016040519081016040528092919081815260200182805461060490614a7a565b80156106515780601f1061062657610100808354040283529160200191610651565b820191906000526020600020905b81548152906001019060200180831161063457829003601f168201915b5050505050815260200190600101906105b9565b505050508152602001600a8201805461067d90614a7a565b80601f01602080910402602001604051908101604052809291908181526020018280546106a990614a7a565b80156106f65780601f106106cb576101008083540402835291602001916106f6565b820191906000526020600020905b8154815290600101906020018083116106d957829003601f168201915b50505050508152602001600b8201805461070f90614a7a565b80601f016020809104026020016040519081016040528092919081815260200182805461073b90614a7a565b80156107885780601f1061075d57610100808354040283529160200191610788565b820191906000526020600020905b81548152906001019060200180831161076b57829003601f168201915b50505050508152602001600c8201805480602002602001604051908101604052809291908181526020016000905b828210156108625783829060005260206000200180546107d590614a7a565b80601f016020809104026020016040519081016040528092919081815260200182805461080190614a7a565b801561084e5780601f106108235761010080835404028352916020019161084e565b820191906000526020600020905b81548152906001019060200180831161083157829003601f168201915b5050505050815260200190600101906107b6565b505050508152602001600d8201805461087a90614a7a565b80601f01602080910402602001604051908101604052809291908181526020018280546108a690614a7a565b80156108f35780601f106108c8576101008083540402835291602001916108f3565b820191906000526020600020905b8154815290600101906020018083116108d657829003601f168201915b50505050508152602001600e8201805461090c90614a7a565b80601f016020809104026020016040519081016040528092919081815260200182805461093890614a7a565b80156109855780601f1061095a57610100808354040283529160200191610985565b820191906000526020600020905b81548152906001019060200180831161096857829003601f168201915b50505050508152602001600f8201805461099e90614a7a565b80601f01602080910402602001604051908101604052809291908181526020018280546109ca90614a7a565b8015610a175780601f106109ec57610100808354040283529160200191610a17565b820191906000526020600020905b8154815290600101906020018083116109fa57829003601f168201915b50505050508152602001601082018054610a3090614a7a565b80601f0160208091040260200160405190810160405280929190818152602001828054610a5c90614a7a565b8015610aa95780601f10610a7e57610100808354040283529160200191610aa9565b820191906000526020600020905b815481529060010190602001808311610a8c57829003601f168201915b50505050508152602001601182018054610ac290614a7a565b80601f0160208091040260200160405190810160405280929190818152602001828054610aee90614a7a565b8015610b3b5780601f10610b1057610100808354040283529160200191610b3b565b820191906000526020600020905b815481529060010190602001808311610b1e57829003601f168201915b50505050508152602001601282018054610b5490614a7a565b80601f0160208091040260200160405190810160405280929190818152602001828054610b8090614a7a565b8015610bcd5780601f10610ba257610100808354040283529160200191610bcd565b820191906000526020600020905b815481529060010190602001808311610bb057829003601f168201915b5050505050815260200160138201805480602002602001604051908101604052809291908181526020016000905b82821015610ca7578382906000526020600020018054610c1a90614a7a565b80601f0160208091040260200160405190810160405280929190818152602001828054610c4690614a7a565b8015610c935780601f10610c6857610100808354040283529160200191610c93565b820191906000526020600020905b815481529060010190602001808311610c7657829003601f168201915b505050505081526020019060010190610bfb565b505050508152602001601482018054610cbf90614a7a565b80601f0160208091040260200160405190810160405280929190818152602001828054610ceb90614a7a565b8015610d385780601f10610d0d57610100808354040283529160200191610d38565b820191906000526020600020905b815481529060010190602001808311610d1b57829003601f168201915b50505050508152602001601582018054610d5190614a7a565b80601f0160208091040260200160405190810160405280929190818152602001828054610d7d90614a7a565b8015610dca5780601f10610d9f57610100808354040283529160200191610dca565b820191906000526020600020905b815481529060010190602001808311610dad57829003601f168201915b50505050508152602001601682018054610de390614a7a565b80601f0160208091040260200160405190810160405280929190818152602001828054610e0f90614a7a565b8015610e5c5780601f10610e3157610100808354040283529160200191610e5c565b820191906000526020600020905b815481529060010190602001808311610e3f57829003601f168201915b50505050508152602001601782018054610e7590614a7a565b80601f0160208091040260200160405190810160405280929190818152602001828054610ea190614a7a565b8015610eee5780601f10610ec357610100808354040283529160200191610eee565b820191906000526020600020905b815481529060010190602001808311610ed157829003601f168201915b50505050508152602001601882018054610f0790614a7a565b80601f0160208091040260200160405190810160405280929190818152602001828054610f3390614a7a565b8015610f805780601f10610f5557610100808354040283529160200191610f80565b820191906000526020600020905b815481529060010190602001808311610f6357829003601f168201915b50505050508152602001601982018054610f9990614a7a565b80601f0160208091040260200160405190810160405280929190818152602001828054610fc590614a7a565b80156110125780601f10610fe757610100808354040283529160200191611012565b820191906000526020600020905b815481529060010190602001808311610ff557829003601f168201915b50505050508152602001601a8201805461102b90614a7a565b80601f016020809104026020016040519081016040528092919081815260200182805461105790614a7a565b80156110a45780601f10611079576101008083540402835291602001916110a4565b820191906000526020600020905b81548152906001019060200180831161108757829003601f168201915b50505050508152602001601b8201805480602002602001604051908101604052809291908181526020016000905b8282101561117e5783829060005260206000200180546110f190614a7a565b80601f016020809104026020016040519081016040528092919081815260200182805461111d90614a7a565b801561116a5780601f1061113f5761010080835404028352916020019161116a565b820191906000526020600020905b81548152906001019060200180831161114d57829003601f168201915b5050505050815260200190600101906110d2565b505050508152602001601c8201805461119690614a7a565b80601f01602080910402602001604051908101604052809291908181526020018280546111c290614a7a565b801561120f5780601f106111e45761010080835404028352916020019161120f565b820191906000526020600020905b8154815290600101906020018083116111f257829003601f168201915b5050505050815250509050919050565b60008a8152600360205260409020600b0161123a8a82614b03565b5060008a8152600360209081526040909120895161126092600c909201918b0190613f0d565b5060008a8152600360205260409020600d0161127c8882614b03565b5060008a8152600360205260409020600e016112988782614b03565b5060008a8152600360205260409020600f016112b48682614b03565b5060008a81526003602052604090206010016112d08582614b03565b5060008a81526003602052604090206011016112ec8482614b03565b5060008a81526003602052604090206012016113088382614b03565b5060008a8152600360205260409081902060028101805460ff60a01b1916600160a01b17905590517f57551da443eabe56020121e95464e228f6f7cabaf10cce8ca84a1229706991ad9161136191600190910190614bc3565b60405180910390a150505050505050505050565b60008581526003602052604090206018016113908582614b03565b5060008581526003602052604090206019016113ac8482614b03565b506000858152600360205260409020601a016113c88382614b03565b50600085815260036020908152604090912082516113ee92601b90920191840190613f0d565b506000858152600360208190526040909120600201805460ff60a01b1916600160a01b835b02179055507f9ff1ea8670bd682da798bc2045481ed14191d52fb0d625a3a8cfbff438b415566003600087815260200190815260200160002060010160405161145c9190614bc3565b60405180910390a15050505050565b611473613e14565b6000838152600360205260409020601c0161148e8382614b03565b506000838152600360205260409081902060028101805460ff60a01b1916600160a21b17905590517fcd4be5048c19b9ba30c4d18f6e74f9d40ecf419733b6f26bb4f55b4eed92e452916114e791600190910190614bc3565b60405180910390a1600060036000858152602001908152602001600020604051806103c00160405290816000820154815260200160018201805461152a90614a7a565b80601f016020809104026020016040519081016040528092919081815260200182805461155690614a7a565b80156115a35780601f10611578576101008083540402835291602001916115a3565b820191906000526020600020905b81548152906001019060200180831161158657829003601f168201915b505050918352505060028201546001600160a01b0381166020830152604090910190600160a01b900460ff1660048111156115e0576115e0614031565b60048111156115f1576115f1614031565b815260200160038201805461160590614a7a565b80601f016020809104026020016040519081016040528092919081815260200182805461163190614a7a565b801561167e5780601f106116535761010080835404028352916020019161167e565b820191906000526020600020905b81548152906001019060200180831161166157829003601f168201915b5050505050815260200160048201805461169790614a7a565b80601f01602080910402602001604051908101604052809291908181526020018280546116c390614a7a565b80156117105780601f106116e557610100808354040283529160200191611710565b820191906000526020600020905b8154815290600101906020018083116116f357829003601f168201915b5050505050815260200160058201805461172990614a7a565b80601f016020809104026020016040519081016040528092919081815260200182805461175590614a7a565b80156117a25780601f10611777576101008083540402835291602001916117a2565b820191906000526020600020905b81548152906001019060200180831161178557829003601f168201915b505050505081526020016006820180546117bb90614a7a565b80601f01602080910402602001604051908101604052809291908181526020018280546117e790614a7a565b80156118345780601f1061180957610100808354040283529160200191611834565b820191906000526020600020905b81548152906001019060200180831161181757829003601f168201915b5050505050815260200160078201805461184d90614a7a565b80601f016020809104026020016040519081016040528092919081815260200182805461187990614a7a565b80156118c65780601f1061189b576101008083540402835291602001916118c6565b820191906000526020600020905b8154815290600101906020018083116118a957829003601f168201915b505050505081526020016008820154815260200160098201805480602002602001604051908101604052809291908181526020016000905b828210156119aa57838290600052602060002001805461191d90614a7a565b80601f016020809104026020016040519081016040528092919081815260200182805461194990614a7a565b80156119965780601f1061196b57610100808354040283529160200191611996565b820191906000526020600020905b81548152906001019060200180831161197957829003601f168201915b5050505050815260200190600101906118fe565b505050508152602001600a820180546119c290614a7a565b80601f01602080910402602001604051908101604052809291908181526020018280546119ee90614a7a565b8015611a3b5780601f10611a1057610100808354040283529160200191611a3b565b820191906000526020600020905b815481529060010190602001808311611a1e57829003601f168201915b50505050508152602001600b82018054611a5490614a7a565b80601f0160208091040260200160405190810160405280929190818152602001828054611a8090614a7a565b8015611acd5780601f10611aa257610100808354040283529160200191611acd565b820191906000526020600020905b815481529060010190602001808311611ab057829003601f168201915b50505050508152602001600c8201805480602002602001604051908101604052809291908181526020016000905b82821015611ba7578382906000526020600020018054611b1a90614a7a565b80601f0160208091040260200160405190810160405280929190818152602001828054611b4690614a7a565b8015611b935780601f10611b6857610100808354040283529160200191611b93565b820191906000526020600020905b815481529060010190602001808311611b7657829003601f168201915b505050505081526020019060010190611afb565b505050508152602001600d82018054611bbf90614a7a565b80601f0160208091040260200160405190810160405280929190818152602001828054611beb90614a7a565b8015611c385780601f10611c0d57610100808354040283529160200191611c38565b820191906000526020600020905b815481529060010190602001808311611c1b57829003601f168201915b50505050508152602001600e82018054611c5190614a7a565b80601f0160208091040260200160405190810160405280929190818152602001828054611c7d90614a7a565b8015611cca5780601f10611c9f57610100808354040283529160200191611cca565b820191906000526020600020905b815481529060010190602001808311611cad57829003601f168201915b50505050508152602001600f82018054611ce390614a7a565b80601f0160208091040260200160405190810160405280929190818152602001828054611d0f90614a7a565b8015611d5c5780601f10611d3157610100808354040283529160200191611d5c565b820191906000526020600020905b815481529060010190602001808311611d3f57829003601f168201915b50505050508152602001601082018054611d7590614a7a565b80601f0160208091040260200160405190810160405280929190818152602001828054611da190614a7a565b8015611dee5780601f10611dc357610100808354040283529160200191611dee565b820191906000526020600020905b815481529060010190602001808311611dd157829003601f168201915b50505050508152602001601182018054611e0790614a7a565b80601f0160208091040260200160405190810160405280929190818152602001828054611e3390614a7a565b8015611e805780601f10611e5557610100808354040283529160200191611e80565b820191906000526020600020905b815481529060010190602001808311611e6357829003601f168201915b50505050508152602001601282018054611e9990614a7a565b80601f0160208091040260200160405190810160405280929190818152602001828054611ec590614a7a565b8015611f125780601f10611ee757610100808354040283529160200191611f12565b820191906000526020600020905b815481529060010190602001808311611ef557829003601f168201915b5050505050815260200160138201805480602002602001604051908101604052809291908181526020016000905b82821015611fec578382906000526020600020018054611f5f90614a7a565b80601f0160208091040260200160405190810160405280929190818152602001828054611f8b90614a7a565b8015611fd85780601f10611fad57610100808354040283529160200191611fd8565b820191906000526020600020905b815481529060010190602001808311611fbb57829003601f168201915b505050505081526020019060010190611f40565b50505050815260200160148201805461200490614a7a565b80601f016020809104026020016040519081016040528092919081815260200182805461203090614a7a565b801561207d5780601f106120525761010080835404028352916020019161207d565b820191906000526020600020905b81548152906001019060200180831161206057829003601f168201915b5050505050815260200160158201805461209690614a7a565b80601f01602080910402602001604051908101604052809291908181526020018280546120c290614a7a565b801561210f5780601f106120e45761010080835404028352916020019161210f565b820191906000526020600020905b8154815290600101906020018083116120f257829003601f168201915b5050505050815260200160168201805461212890614a7a565b80601f016020809104026020016040519081016040528092919081815260200182805461215490614a7a565b80156121a15780601f10612176576101008083540402835291602001916121a1565b820191906000526020600020905b81548152906001019060200180831161218457829003601f168201915b505050505081526020016017820180546121ba90614a7a565b80601f01602080910402602001604051908101604052809291908181526020018280546121e690614a7a565b80156122335780601f1061220857610100808354040283529160200191612233565b820191906000526020600020905b81548152906001019060200180831161221657829003601f168201915b5050505050815260200160188201805461224c90614a7a565b80601f016020809104026020016040519081016040528092919081815260200182805461227890614a7a565b80156122c55780601f1061229a576101008083540402835291602001916122c5565b820191906000526020600020905b8154815290600101906020018083116122a857829003601f168201915b505050505081526020016019820180546122de90614a7a565b80601f016020809104026020016040519081016040528092919081815260200182805461230a90614a7a565b80156123575780601f1061232c57610100808354040283529160200191612357565b820191906000526020600020905b81548152906001019060200180831161233a57829003601f168201915b50505050508152602001601a8201805461237090614a7a565b80601f016020809104026020016040519081016040528092919081815260200182805461239c90614a7a565b80156123e95780601f106123be576101008083540402835291602001916123e9565b820191906000526020600020905b8154815290600101906020018083116123cc57829003601f168201915b50505050508152602001601b8201805480602002602001604051908101604052809291908181526020016000905b828210156124c357838290600052602060002001805461243690614a7a565b80601f016020809104026020016040519081016040528092919081815260200182805461246290614a7a565b80156124af5780601f10612484576101008083540402835291602001916124af565b820191906000526020600020905b81548152906001019060200180831161249257829003601f168201915b505050505081526020019060010190612417565b505050508152602001601c820180546124db90614a7a565b80601f016020809104026020016040519081016040528092919081815260200182805461250790614a7a565b80156125545780601f1061252957610100808354040283529160200191612554565b820191906000526020600020905b81548152906001019060200180831161253757829003601f168201915b50505091909252509193505050505b92915050565b6060600060025467ffffffffffffffff811115612588576125886143ef565b6040519080825280602002602001820160405280156125bb57816020015b60608152602001906001900390816125a65790505b509050600080805b600254811015612642576125d8816001614c64565b6000818152600360205260408120600201549193509061260190600160a01b900460ff16613cbd565b90508085858151811061261657612616614c77565b602090810291909101015261262c600185614c64565b935050808061263a90614c8d565b9150506125c3565b50919392505050565b6060600060025467ffffffffffffffff81111561266a5761266a6143ef565b60405190808252806020026020018201604052801561269d57816020015b60608152602001906001900390816126885790505b509050600080805b600254811015612642576126ba816001614c64565b600081815260036020526040902060010180549193509081906126dc90614a7a565b80601f016020809104026020016040519081016040528092919081815260200182805461270890614a7a565b80156127555780601f1061272a57610100808354040283529160200191612755565b820191906000526020600020905b81548152906001019060200180831161273857829003601f168201915b505050505085858151811061276c5761276c614c77565b6020908102919091010152612782600185614c64565b935050808061279090614c8d565b9150506126a5565b60008581526003602052604090206014016127b38582614b03565b5060008581526003602052604090206016016127cf8382614b03565b5060008581526003602052604090206017016127eb8282614b03565b5060008581526003602052604090206002908101805460ff60a01b1916600160a01b83611413565b600254612821906001614c64565b60025561282c613e14565b60025480825260208083018d81526001600160a01b038d16604080860191909152600060608601819052608086018e905260a086018d9052610100860187905260c086018c905260e086018b905261012086018a9052610140860189905261016086018890529384526003909252912082518155905182919060018201906128b49082614b03565b5060408201516002820180546001600160a01b039092166001600160a01b03198316811782556060850151926001600160a81b03191617600160a01b83600481111561290257612902614031565b02179055506080820151600382019061291b9082614b03565b5060a082015160048201906129309082614b03565b5060c082015160058201906129459082614b03565b5060e0820151600682019061295a9082614b03565b5061010082015160078201906129709082614b03565b5061012082015160088201556101408201518051612998916009840191602090910190613f0d565b50610160820151600a8201906129ae9082614b03565b50610180820151600b8201906129c49082614b03565b506101a082015180516129e191600c840191602090910190613f0d565b506101c0820151600d8201906129f79082614b03565b506101e0820151600e820190612a0d9082614b03565b50610200820151600f820190612a239082614b03565b506102208201516010820190612a399082614b03565b506102408201516011820190612a4f9082614b03565b506102608201516012820190612a659082614b03565b506102808201518051612a82916013840191602090910190613f0d565b506102a08201516014820190612a989082614b03565b506102c08201516015820190612aae9082614b03565b506102e08201516016820190612ac49082614b03565b506103008201516017820190612ada9082614b03565b506103208201516018820190612af09082614b03565b506103408201516019820190612b069082614b03565b50610360820151601a820190612b1c9082614b03565b506103808201518051612b3991601b840191602090910190613f0d565b506103a0820151601c820190612b4f9082614b03565b509050507fdc53d68b91405cf526f6bc9ec0408db6a3e8b0d7512058a2923230b3900e2ee58b604051612b829190614ca6565b60405180910390a15050505050505050505050565b6060600060025467ffffffffffffffff811115612bb657612bb66143ef565b604051908082528060200260200182016040528015612bef57816020015b612bdc613e14565b815260200190600190039081612bd45790505b509050600080805b60025481101561264257612c0c816001614c64565b9150600060036000848152602001908152602001600020905080604051806103c001604052908160008201548152602001600182018054612c4c90614a7a565b80601f0160208091040260200160405190810160405280929190818152602001828054612c7890614a7a565b8015612cc55780601f10612c9a57610100808354040283529160200191612cc5565b820191906000526020600020905b815481529060010190602001808311612ca857829003601f168201915b505050918352505060028201546001600160a01b0381166020830152604090910190600160a01b900460ff166004811115612d0257612d02614031565b6004811115612d1357612d13614031565b8152602001600382018054612d2790614a7a565b80601f0160208091040260200160405190810160405280929190818152602001828054612d5390614a7a565b8015612da05780601f10612d7557610100808354040283529160200191612da0565b820191906000526020600020905b815481529060010190602001808311612d8357829003601f168201915b50505050508152602001600482018054612db990614a7a565b80601f0160208091040260200160405190810160405280929190818152602001828054612de590614a7a565b8015612e325780601f10612e0757610100808354040283529160200191612e32565b820191906000526020600020905b815481529060010190602001808311612e1557829003601f168201915b50505050508152602001600582018054612e4b90614a7a565b80601f0160208091040260200160405190810160405280929190818152602001828054612e7790614a7a565b8015612ec45780601f10612e9957610100808354040283529160200191612ec4565b820191906000526020600020905b815481529060010190602001808311612ea757829003601f168201915b50505050508152602001600682018054612edd90614a7a565b80601f0160208091040260200160405190810160405280929190818152602001828054612f0990614a7a565b8015612f565780601f10612f2b57610100808354040283529160200191612f56565b820191906000526020600020905b815481529060010190602001808311612f3957829003601f168201915b50505050508152602001600782018054612f6f90614a7a565b80601f0160208091040260200160405190810160405280929190818152602001828054612f9b90614a7a565b8015612fe85780601f10612fbd57610100808354040283529160200191612fe8565b820191906000526020600020905b815481529060010190602001808311612fcb57829003601f168201915b505050505081526020016008820154815260200160098201805480602002602001604051908101604052809291908181526020016000905b828210156130cc57838290600052602060002001805461303f90614a7a565b80601f016020809104026020016040519081016040528092919081815260200182805461306b90614a7a565b80156130b85780601f1061308d576101008083540402835291602001916130b8565b820191906000526020600020905b81548152906001019060200180831161309b57829003601f168201915b505050505081526020019060010190613020565b505050508152602001600a820180546130e490614a7a565b80601f016020809104026020016040519081016040528092919081815260200182805461311090614a7a565b801561315d5780601f106131325761010080835404028352916020019161315d565b820191906000526020600020905b81548152906001019060200180831161314057829003601f168201915b50505050508152602001600b8201805461317690614a7a565b80601f01602080910402602001604051908101604052809291908181526020018280546131a290614a7a565b80156131ef5780601f106131c4576101008083540402835291602001916131ef565b820191906000526020600020905b8154815290600101906020018083116131d257829003601f168201915b50505050508152602001600c8201805480602002602001604051908101604052809291908181526020016000905b828210156132c957838290600052602060002001805461323c90614a7a565b80601f016020809104026020016040519081016040528092919081815260200182805461326890614a7a565b80156132b55780601f1061328a576101008083540402835291602001916132b5565b820191906000526020600020905b81548152906001019060200180831161329857829003601f168201915b50505050508152602001906001019061321d565b505050508152602001600d820180546132e190614a7a565b80601f016020809104026020016040519081016040528092919081815260200182805461330d90614a7a565b801561335a5780601f1061332f5761010080835404028352916020019161335a565b820191906000526020600020905b81548152906001019060200180831161333d57829003601f168201915b50505050508152602001600e8201805461337390614a7a565b80601f016020809104026020016040519081016040528092919081815260200182805461339f90614a7a565b80156133ec5780601f106133c1576101008083540402835291602001916133ec565b820191906000526020600020905b8154815290600101906020018083116133cf57829003601f168201915b50505050508152602001600f8201805461340590614a7a565b80601f016020809104026020016040519081016040528092919081815260200182805461343190614a7a565b801561347e5780601f106134535761010080835404028352916020019161347e565b820191906000526020600020905b81548152906001019060200180831161346157829003601f168201915b5050505050815260200160108201805461349790614a7a565b80601f01602080910402602001604051908101604052809291908181526020018280546134c390614a7a565b80156135105780601f106134e557610100808354040283529160200191613510565b820191906000526020600020905b8154815290600101906020018083116134f357829003601f168201915b5050505050815260200160118201805461352990614a7a565b80601f016020809104026020016040519081016040528092919081815260200182805461355590614a7a565b80156135a25780601f10613577576101008083540402835291602001916135a2565b820191906000526020600020905b81548152906001019060200180831161358557829003601f168201915b505050505081526020016012820180546135bb90614a7a565b80601f01602080910402602001604051908101604052809291908181526020018280546135e790614a7a565b80156136345780601f1061360957610100808354040283529160200191613634565b820191906000526020600020905b81548152906001019060200180831161361757829003601f168201915b5050505050815260200160138201805480602002602001604051908101604052809291908181526020016000905b8282101561370e57838290600052602060002001805461368190614a7a565b80601f01602080910402602001604051908101604052809291908181526020018280546136ad90614a7a565b80156136fa5780601f106136cf576101008083540402835291602001916136fa565b820191906000526020600020905b8154815290600101906020018083116136dd57829003601f168201915b505050505081526020019060010190613662565b50505050815260200160148201805461372690614a7a565b80601f016020809104026020016040519081016040528092919081815260200182805461375290614a7a565b801561379f5780601f106137745761010080835404028352916020019161379f565b820191906000526020600020905b81548152906001019060200180831161378257829003601f168201915b505050505081526020016015820180546137b890614a7a565b80601f01602080910402602001604051908101604052809291908181526020018280546137e490614a7a565b80156138315780601f1061380657610100808354040283529160200191613831565b820191906000526020600020905b81548152906001019060200180831161381457829003601f168201915b5050505050815260200160168201805461384a90614a7a565b80601f016020809104026020016040519081016040528092919081815260200182805461387690614a7a565b80156138c35780601f10613898576101008083540402835291602001916138c3565b820191906000526020600020905b8154815290600101906020018083116138a657829003601f168201915b505050505081526020016017820180546138dc90614a7a565b80601f016020809104026020016040519081016040528092919081815260200182805461390890614a7a565b80156139555780601f1061392a57610100808354040283529160200191613955565b820191906000526020600020905b81548152906001019060200180831161393857829003601f168201915b5050505050815260200160188201805461396e90614a7a565b80601f016020809104026020016040519081016040528092919081815260200182805461399a90614a7a565b80156139e75780601f106139bc576101008083540402835291602001916139e7565b820191906000526020600020905b8154815290600101906020018083116139ca57829003601f168201915b50505050508152602001601982018054613a0090614a7a565b80601f0160208091040260200160405190810160405280929190818152602001828054613a2c90614a7a565b8015613a795780601f10613a4e57610100808354040283529160200191613a79565b820191906000526020600020905b815481529060010190602001808311613a5c57829003601f168201915b50505050508152602001601a82018054613a9290614a7a565b80601f0160208091040260200160405190810160405280929190818152602001828054613abe90614a7a565b8015613b0b5780601f10613ae057610100808354040283529160200191613b0b565b820191906000526020600020905b815481529060010190602001808311613aee57829003601f168201915b50505050508152602001601b8201805480602002602001604051908101604052809291908181526020016000905b82821015613be5578382906000526020600020018054613b5890614a7a565b80601f0160208091040260200160405190810160405280929190818152602001828054613b8490614a7a565b8015613bd15780601f10613ba657610100808354040283529160200191613bd1565b820191906000526020600020905b815481529060010190602001808311613bb457829003601f168201915b505050505081526020019060010190613b39565b505050508152602001601c82018054613bfd90614a7a565b80601f0160208091040260200160405190810160405280929190818152602001828054613c2990614a7a565b8015613c765780601f10613c4b57610100808354040283529160200191613c76565b820191906000526020600020905b815481529060010190602001808311613c5957829003601f168201915b505050505081525050858581518110613c9157613c91614c77565b6020908102919091010152613ca7600185614c64565b9350508080613cb590614c8d565b915050612bf7565b6060816000816004811115613cd457613cd4614031565b03613d0057505060408051808201909152600981526812185c9d995cdd195960ba1b6020820152919050565b6001816004811115613d1457613d14614031565b03613d4157505060408051808201909152600a81526950726f63657373696e6760b01b6020820152919050565b6002816004811115613d5557613d55614031565b03613d7f57505060408051808201909152600781526648756c6c696e6760c81b6020820152919050565b6003816004811115613d9357613d93614031565b03613dbe575050604080518082019091526008815267526f617374696e6760c01b6020820152919050565b6004816004811115613dd257613dd2614031565b03613dfe5750506040805180820190915260098152685061636b6167696e6760b81b6020820152919050565b5050604080516020810190915260008152919050565b604051806103c00160405280600081526020016060815260200160006001600160a01b0316815260200160006004811115613e5157613e51614031565b815260200160608152602001606081526020016060815260200160608152602001606081526020016000815260200160608152602001606081526020016060815260200160608152602001606081526020016060815260200160608152602001606081526020016060815260200160608152602001606081526020016060815260200160608152602001606081526020016060815260200160608152602001606081526020016060815260200160608152602001606081525090565b828054828255906000526020600020908101928215613f53579160200282015b82811115613f535782518290613f439082614b03565b5091602001919060010190613f2d565b50613f5f929150613f63565b5090565b80821115613f5f576000613f778282613f80565b50600101613f63565b508054613f8c90614a7a565b6000825580601f10613f9c575050565b601f016020900490600052602060002090810190613fba9190613fbd565b50565b5b80821115613f5f5760008155600101613fbe565b600060208284031215613fe457600080fd5b5035919050565b6000815180845260005b8181101561401157602081850181015186830182015201613ff5565b506000602082860101526020601f19601f83011685010191505092915050565b634e487b7160e01b600052602160045260246000fd5b6005811061406557634e487b7160e01b600052602160045260246000fd5b9052565b600081518084526020808501808196508360051b8101915082860160005b858110156140b157828403895261409f848351613feb565b98850198935090840190600101614087565b5091979650505050505050565b60006103c08251845260208301518160208601526140de82860182613feb565b91505060408301516140fb60408601826001600160a01b03169052565b50606083015161410e6060860182614047565b50608083015184820360808601526141268282613feb565b91505060a083015184820360a08601526141408282613feb565b91505060c083015184820360c086015261415a8282613feb565b91505060e083015184820360e08601526141748282613feb565b915050610100808401518583038287015261418f8382613feb565b9250505061012080840151818601525061014080840151858303828701526141b78382614069565b9250505061016080840151858303828701526141d38382613feb565b9250505061018080840151858303828701526141ef8382613feb565b925050506101a0808401518583038287015261420b8382614069565b925050506101c080840151858303828701526142278382613feb565b925050506101e080840151858303828701526142438382613feb565b92505050610200808401518583038287015261425f8382613feb565b92505050610220808401518583038287015261427b8382613feb565b9250505061024080840151858303828701526142978382613feb565b9250505061026080840151858303828701526142b38382613feb565b9250505061028080840151858303828701526142cf8382614069565b925050506102a080840151858303828701526142eb8382613feb565b925050506102c080840151858303828701526143078382613feb565b925050506102e080840151858303828701526143238382613feb565b92505050610300808401518583038287015261433f8382613feb565b92505050610320808401518583038287015261435b8382613feb565b9250505061034080840151858303828701526143778382613feb565b9250505061036080840151858303828701526143938382613feb565b9250505061038080840151858303828701526143af8382614069565b925050506103a080840151858303828701526143cb8382613feb565b9695505050505050565b6020815260006143e860208301846140be565b9392505050565b634e487b7160e01b600052604160045260246000fd5b604051601f8201601f1916810167ffffffffffffffff8111828210171561442e5761442e6143ef565b604052919050565b600082601f83011261444757600080fd5b813567ffffffffffffffff811115614461576144616143ef565b614474601f8201601f1916602001614405565b81815284602083860101111561448957600080fd5b816020850160208301376000918101602001919091529392505050565b600082601f8301126144b757600080fd5b8135602067ffffffffffffffff808311156144d4576144d46143ef565b8260051b6144e3838201614405565b93845285810183019383810190888611156144fd57600080fd5b84880192505b858310156145395782358481111561451b5760008081fd5b6145298a87838c0101614436565b8352509184019190840190614503565b98975050505050505050565b6000806000806000806000806000806101408b8d03121561456557600080fd5b8a35995060208b013567ffffffffffffffff8082111561458457600080fd5b6145908e838f01614436565b9a5060408d01359150808211156145a657600080fd5b6145b28e838f016144a6565b995060608d01359150808211156145c857600080fd5b6145d48e838f01614436565b985060808d01359150808211156145ea57600080fd5b6145f68e838f01614436565b975060a08d013591508082111561460c57600080fd5b6146188e838f01614436565b965060c08d013591508082111561462e57600080fd5b61463a8e838f01614436565b955060e08d013591508082111561465057600080fd5b61465c8e838f01614436565b94506101008d013591508082111561467357600080fd5b61467f8e838f01614436565b93506101208d013591508082111561469657600080fd5b506146a38d828e016144a6565b9150509295989b9194979a5092959850565b600080600080600060a086880312156146cd57600080fd5b85359450602086013567ffffffffffffffff808211156146ec57600080fd5b6146f889838a01614436565b9550604088013591508082111561470e57600080fd5b61471a89838a01614436565b9450606088013591508082111561473057600080fd5b61473c89838a01614436565b9350608088013591508082111561475257600080fd5b5061475f888289016144a6565b9150509295509295909350565b6000806040838503121561477f57600080fd5b82359150602083013567ffffffffffffffff81111561479d57600080fd5b6147a985828601614436565b9150509250929050565b6000602080830181845280855180835260408601915060408160051b870101925083870160005b8281101561480857603f198886030184526147f6858351613feb565b945092850192908501906001016147da565b5092979650505050505050565b600080600080600060a0868803121561482d57600080fd5b85359450602086013567ffffffffffffffff8082111561484c57600080fd5b61485889838a01614436565b9550604088013591508082111561486e57600080fd5b61487a89838a01614436565b9450606088013591508082111561489057600080fd5b61489c89838a01614436565b935060808801359150808211156148b257600080fd5b5061475f88828901614436565b80356001600160a01b03811681146148d657600080fd5b919050565b6000806000806000806000806000806101408b8d0312156148fb57600080fd5b8a3567ffffffffffffffff8082111561491357600080fd5b61491f8e838f01614436565b9b5061492d60208e016148bf565b9a5060408d013591508082111561494357600080fd5b61494f8e838f01614436565b995060608d013591508082111561496557600080fd5b6149718e838f01614436565b985060808d013591508082111561498757600080fd5b6149938e838f01614436565b975060a08d01359150808211156149a957600080fd5b6149b58e838f01614436565b965060c08d0135955060e08d01359150808211156149d257600080fd5b6149de8e838f016144a6565b94506101008d01359150808211156149f557600080fd5b614a018e838f01614436565b93506101208d0135915080821115614a1857600080fd5b506146a38d828e01614436565b6000602080830181845280855180835260408601915060408160051b870101925083870160005b8281101561480857603f19888603018452614a688583516140be565b94509285019290850190600101614a4c565b600181811c90821680614a8e57607f821691505b602082108103614aae57634e487b7160e01b600052602260045260246000fd5b50919050565b601f821115614afe57600081815260208120601f850160051c81016020861015614adb5750805b601f850160051c820191505b81811015614afa57828155600101614ae7565b5050505b505050565b815167ffffffffffffffff811115614b1d57614b1d6143ef565b614b3181614b2b8454614a7a565b84614ab4565b602080601f831160018114614b665760008415614b4e5750858301515b600019600386901b1c1916600185901b178555614afa565b600085815260208120601f198616915b82811015614b9557888601518255948401946001909101908401614b76565b5085821015614bb35787850151600019600388901b60f8161c191681555b5050505050600190811b01905550565b6000602080835260008454614bd781614a7a565b80848701526040600180841660008114614bf85760018114614c1257614c40565b60ff1985168984015283151560051b890183019550614c40565b896000528660002060005b85811015614c385781548b8201860152908301908801614c1d565b8a0184019650505b509398975050505050505050565b634e487b7160e01b600052601160045260246000fd5b8082018082111561256357612563614c4e565b634e487b7160e01b600052603260045260246000fd5b600060018201614c9f57614c9f614c4e565b5060010190565b6020815260006143e86020830184613feb56fea2646970667358221220d7e9be158988625ac46fb4a2f20b8f5f8835fdbd69d1de72aa5601f4cee1e95c64736f6c63430008120033",
  "linkReferences": {},
  "deployedLinkReferences": {}
}