{
  "_format": "hh-sol-artifact-1",
  "contractName": "Coffee",
  "sourceName": "contracts/Coffee.sol",
  "abi": [
    {
      "inputs": [],
      "stateMutability": "payable",
      "type": "constructor"
    },
    {
      "anonymous": false,
      "inputs": [
        {
          "indexed": false,
          "internalType": "string",
          "name": "upc",
          "type": "string"
        }
      ],
      "name": "Harvested",
      "type": "event"
    },
    {
      "anonymous": false,
      "inputs": [
        {
          "indexed": false,
          "internalType": "string",
          "name": "upc",
          "type": "string"
        }
      ],
      "name": "Packaged",
      "type": "event"
    },
    {
      "anonymous": false,
      "inputs": [
        {
          "indexed": false,
          "internalType": "string",
          "name": "upc",
          "type": "string"
        }
      ],
      "name": "Planted",
      "type": "event"
    },
    {
      "anonymous": false,
      "inputs": [
        {
          "indexed": false,
          "internalType": "string",
          "name": "upc",
          "type": "string"
        }
      ],
      "name": "Processed",
      "type": "event"
    },
    {
      "anonymous": false,
      "inputs": [
        {
          "indexed": false,
          "internalType": "string",
          "name": "upc",
          "type": "string"
        }
      ],
      "name": "Roasted",
      "type": "event"
    },
    {
      "inputs": [
        {
          "internalType": "string",
          "name": "_upc",
          "type": "string"
        },
        {
          "internalType": "address",
          "name": "_pAdd",
          "type": "address"
        },
        {
          "internalType": "string",
          "name": "_s_variety",
          "type": "string"
        },
        {
          "internalType": "string",
          "name": "_s_temp",
          "type": "string"
        },
        {
          "internalType": "string",
          "name": "_s_region",
          "type": "string"
        },
        {
          "internalType": "string",
          "name": "_s_planter",
          "type": "string"
        },
        {
          "internalType": "uint256",
          "name": "_s_soiltype",
          "type": "uint256"
        },
        {
          "internalType": "string[]",
          "name": "_s_images",
          "type": "string[]"
        },
        {
          "internalType": "string",
          "name": "_s_date",
          "type": "string"
        }
      ],
      "name": "addbatch",
      "outputs": [],
      "stateMutability": "payable",
      "type": "function"
    },
    {
      "inputs": [
        {
          "internalType": "string",
          "name": "str1",
          "type": "string"
        },
        {
          "internalType": "string",
          "name": "str2",
          "type": "string"
        }
      ],
      "name": "compare",
      "outputs": [
        {
          "internalType": "bool",
          "name": "",
          "type": "bool"
        }
      ],
      "stateMutability": "pure",
      "type": "function"
    },
    {
      "inputs": [],
      "name": "getInv",
      "outputs": [
        {
          "components": [
            {
              "internalType": "uint256",
              "name": "sku",
              "type": "uint256"
            },
            {
              "internalType": "string",
              "name": "upc",
              "type": "string"
            },
            {
              "internalType": "address",
              "name": "pAdd",
              "type": "address"
            },
            {
              "internalType": "enum Coffee.State",
              "name": "itemState",
              "type": "uint8"
            },
            {
              "internalType": "string",
              "name": "totalyeild",
              "type": "string"
            },
            {
              "internalType": "string",
              "name": "s_variety",
              "type": "string"
            },
            {
              "internalType": "string",
              "name": "s_temp",
              "type": "string"
            },
            {
              "internalType": "string",
              "name": "s_region",
              "type": "string"
            },
            {
              "internalType": "string",
              "name": "s_planter",
              "type": "string"
            },
            {
              "internalType": "uint256",
              "name": "s_soiltype",
              "type": "uint256"
            },
            {
              "internalType": "string[]",
              "name": "s_imgs",
              "type": "string[]"
            },
            {
              "internalType": "string",
              "name": "s_date",
              "type": "string"
            },
            {
              "internalType": "string",
              "name": "h_temp",
              "type": "string"
            },
            {
              "internalType": "string[]",
              "name": "fert",
              "type": "string[]"
            },
            {
              "internalType": "string[]",
              "name": "h_tech",
              "type": "string[]"
            },
            {
              "internalType": "string",
              "name": "h_date",
              "type": "string"
            },
            {
              "internalType": "string[]",
              "name": "h_imgs",
              "type": "string[]"
            },
            {
              "internalType": "string",
              "name": "p_date",
              "type": "string"
            },
            {
              "internalType": "string[]",
              "name": "p_tech",
              "type": "string[]"
            },
            {
              "internalType": "string[]",
              "name": "p_imgs",
              "type": "string[]"
            },
            {
              "internalType": "string",
              "name": "r_type",
              "type": "string"
            },
            {
              "internalType": "string",
              "name": "r_partsize",
              "type": "string"
            },
            {
              "internalType": "string",
              "name": "r_date",
              "type": "string"
            },
            {
              "internalType": "string",
              "name": "r_location",
              "type": "string"
            },
            {
              "internalType": "string[]",
              "name": "r_imgs",
              "type": "string[]"
            },
            {
              "internalType": "string",
              "name": "f_date",
              "type": "string"
            },
            {
              "internalType": "string[]",
              "name": "f_facilities",
              "type": "string[]"
            }
          ],
          "internalType": "struct Coffee.Batch[]",
          "name": "",
          "type": "tuple[]"
        }
      ],
      "stateMutability": "view",
      "type": "function"
    },
    {
      "inputs": [
        {
          "internalType": "string",
          "name": "upc",
          "type": "string"
        }
      ],
      "name": "getinfo",
      "outputs": [
        {
          "components": [
            {
              "internalType": "uint256",
              "name": "sku",
              "type": "uint256"
            },
            {
              "internalType": "string",
              "name": "upc",
              "type": "string"
            },
            {
              "internalType": "address",
              "name": "pAdd",
              "type": "address"
            },
            {
              "internalType": "enum Coffee.State",
              "name": "itemState",
              "type": "uint8"
            },
            {
              "internalType": "string",
              "name": "totalyeild",
              "type": "string"
            },
            {
              "internalType": "string",
              "name": "s_variety",
              "type": "string"
            },
            {
              "internalType": "string",
              "name": "s_temp",
              "type": "string"
            },
            {
              "internalType": "string",
              "name": "s_region",
              "type": "string"
            },
            {
              "internalType": "string",
              "name": "s_planter",
              "type": "string"
            },
            {
              "internalType": "uint256",
              "name": "s_soiltype",
              "type": "uint256"
            },
            {
              "internalType": "string[]",
              "name": "s_imgs",
              "type": "string[]"
            },
            {
              "internalType": "string",
              "name": "s_date",
              "type": "string"
            },
            {
              "internalType": "string",
              "name": "h_temp",
              "type": "string"
            },
            {
              "internalType": "string[]",
              "name": "fert",
              "type": "string[]"
            },
            {
              "internalType": "string[]",
              "name": "h_tech",
              "type": "string[]"
            },
            {
              "internalType": "string",
              "name": "h_date",
              "type": "string"
            },
            {
              "internalType": "string[]",
              "name": "h_imgs",
              "type": "string[]"
            },
            {
              "internalType": "string",
              "name": "p_date",
              "type": "string"
            },
            {
              "internalType": "string[]",
              "name": "p_tech",
              "type": "string[]"
            },
            {
              "internalType": "string[]",
              "name": "p_imgs",
              "type": "string[]"
            },
            {
              "internalType": "string",
              "name": "r_type",
              "type": "string"
            },
            {
              "internalType": "string",
              "name": "r_partsize",
              "type": "string"
            },
            {
              "internalType": "string",
              "name": "r_date",
              "type": "string"
            },
            {
              "internalType": "string",
              "name": "r_location",
              "type": "string"
            },
            {
              "internalType": "string[]",
              "name": "r_imgs",
              "type": "string[]"
            },
            {
              "internalType": "string",
              "name": "f_date",
              "type": "string"
            },
            {
              "internalType": "string[]",
              "name": "f_facilities",
              "type": "string[]"
            }
          ],
          "internalType": "struct Coffee.Batch[]",
          "name": "",
          "type": "tuple[]"
        }
      ],
      "stateMutability": "payable",
      "type": "function"
    },
    {
      "inputs": [],
      "name": "getstates",
      "outputs": [
        {
          "internalType": "string[]",
          "name": "",
          "type": "string[]"
        }
      ],
      "stateMutability": "view",
      "type": "function"
    },
    {
      "inputs": [],
      "name": "getupcs",
      "outputs": [
        {
          "internalType": "string[]",
          "name": "",
          "type": "string[]"
        }
      ],
      "stateMutability": "view",
      "type": "function"
    },
    {
      "inputs": [
        {
          "internalType": "uint256",
          "name": "_sku",
          "type": "uint256"
        },
        {
          "internalType": "string",
          "name": "_h_temp",
          "type": "string"
        },
        {
          "internalType": "string[]",
          "name": "_fert",
          "type": "string[]"
        },
        {
          "internalType": "string[]",
          "name": "_h_tech",
          "type": "string[]"
        },
        {
          "internalType": "string",
          "name": "_h_date",
          "type": "string"
        },
        {
          "internalType": "string[]",
          "name": "_h_imgs",
          "type": "string[]"
        }
      ],
      "name": "harvest",
      "outputs": [],
      "stateMutability": "payable",
      "type": "function"
    },
    {
      "inputs": [
        {
          "internalType": "uint256",
          "name": "_sku",
          "type": "uint256"
        },
        {
          "internalType": "string",
          "name": "_f_date",
          "type": "string"
        },
        {
          "internalType": "string[]",
          "name": "_f_facilities",
          "type": "string[]"
        }
      ],
      "name": "packaging",
      "outputs": [
        {
          "components": [
            {
              "internalType": "uint256",
              "name": "sku",
              "type": "uint256"
            },
            {
              "internalType": "string",
              "name": "upc",
              "type": "string"
            },
            {
              "internalType": "address",
              "name": "pAdd",
              "type": "address"
            },
            {
              "internalType": "enum Coffee.State",
              "name": "itemState",
              "type": "uint8"
            },
            {
              "internalType": "string",
              "name": "totalyeild",
              "type": "string"
            },
            {
              "internalType": "string",
              "name": "s_variety",
              "type": "string"
            },
            {
              "internalType": "string",
              "name": "s_temp",
              "type": "string"
            },
            {
              "internalType": "string",
              "name": "s_region",
              "type": "string"
            },
            {
              "internalType": "string",
              "name": "s_planter",
              "type": "string"
            },
            {
              "internalType": "uint256",
              "name": "s_soiltype",
              "type": "uint256"
            },
            {
              "internalType": "string[]",
              "name": "s_imgs",
              "type": "string[]"
            },
            {
              "internalType": "string",
              "name": "s_date",
              "type": "string"
            },
            {
              "internalType": "string",
              "name": "h_temp",
              "type": "string"
            },
            {
              "internalType": "string[]",
              "name": "fert",
              "type": "string[]"
            },
            {
              "internalType": "string[]",
              "name": "h_tech",
              "type": "string[]"
            },
            {
              "internalType": "string",
              "name": "h_date",
              "type": "string"
            },
            {
              "internalType": "string[]",
              "name": "h_imgs",
              "type": "string[]"
            },
            {
              "internalType": "string",
              "name": "p_date",
              "type": "string"
            },
            {
              "internalType": "string[]",
              "name": "p_tech",
              "type": "string[]"
            },
            {
              "internalType": "string[]",
              "name": "p_imgs",
              "type": "string[]"
            },
            {
              "internalType": "string",
              "name": "r_type",
              "type": "string"
            },
            {
              "internalType": "string",
              "name": "r_partsize",
              "type": "string"
            },
            {
              "internalType": "string",
              "name": "r_date",
              "type": "string"
            },
            {
              "internalType": "string",
              "name": "r_location",
              "type": "string"
            },
            {
              "internalType": "string[]",
              "name": "r_imgs",
              "type": "string[]"
            },
            {
              "internalType": "string",
              "name": "f_date",
              "type": "string"
            },
            {
              "internalType": "string[]",
              "name": "f_facilities",
              "type": "string[]"
            }
          ],
          "internalType": "struct Coffee.Batch",
          "name": "",
          "type": "tuple"
        }
      ],
      "stateMutability": "payable",
      "type": "function"
    },
    {
      "inputs": [
        {
          "internalType": "uint256",
          "name": "_sku",
          "type": "uint256"
        },
        {
          "internalType": "string",
          "name": "_p_date",
          "type": "string"
        },
        {
          "internalType": "string[]",
          "name": "_p_tech",
          "type": "string[]"
        },
        {
          "internalType": "string[]",
          "name": "_p_imgs",
          "type": "string[]"
        }
      ],
      "name": "process",
      "outputs": [],
      "stateMutability": "payable",
      "type": "function"
    },
    {
      "inputs": [
        {
          "internalType": "uint256",
          "name": "_sku",
          "type": "uint256"
        },
        {
          "internalType": "string",
          "name": "_r_type",
          "type": "string"
        },
        {
          "internalType": "string",
          "name": "_r_partsize",
          "type": "string"
        },
        {
          "internalType": "string",
          "name": "_r_date",
          "type": "string"
        },
        {
          "internalType": "string",
          "name": "_r_location",
          "type": "string"
        },
        {
          "internalType": "string[]",
          "name": "_r_imgs",
          "type": "string[]"
        },
        {
          "internalType": "string",
          "name": "_totalyeild",
          "type": "string"
        }
      ],
      "name": "roasting",
      "outputs": [],
      "stateMutability": "payable",
      "type": "function"
    }
  ],
  "bytecode": "0x600080546001600160a01b0319163317815560025560c0604052600460809081526342312e3160e01b60a0526001906200003a9082620000e6565b50620001b2565b634e487b7160e01b600052604160045260246000fd5b600181811c908216806200006c57607f821691505b6020821081036200008d57634e487b7160e01b600052602260045260246000fd5b50919050565b601f821115620000e157600081815260208120601f850160051c81016020861015620000bc5750805b601f850160051c820191505b81811015620000dd57828155600101620000c8565b5050505b505050565b81516001600160401b0381111562000102576200010262000041565b6200011a8162000113845462000057565b8462000093565b602080601f831160018114620001525760008415620001395750858301515b600019600386901b1c1916600185901b178555620000dd565b600085815260208120601f198616915b82811015620001835788860151825594840194600190910190840162000162565b5085821015620001a25787850151600019600388901b60f8161c191681555b5050505050600190811b01905550565b614d3280620001c26000396000f3fe6080604052600436106100915760003560e01c8063950ebf6211610059578063950ebf6214610133578063a01990fe14610155578063a94f122214610168578063d141b0211461017d578063fb1bf5d31461019057600080fd5b80633a96fdd7146100965780634233164d146100cb57806352c2a33c146100e05780635aaca11314610100578063902929f414610113575b600080fd5b3480156100a257600080fd5b506100b66100b13660046140cb565b6101a5565b60405190151581526020015b60405180910390f35b6100de6100d93660046141cc565b610210565b005b6100f36100ee36600461425d565b6102de565b6040516100c2919061466c565b6100de61010e366004614686565b611365565b61012661012136600461475f565b611477565b6040516100c2919061479b565b34801561013f57600080fd5b506101486125af565b6040516100c291906147fd565b6100de61016336600461486e565b612690565b34801561017457600080fd5b506101486129e6565b6100de61018b3660046149a3565b612b32565b34801561019c57600080fd5b50610126612c4e565b600081518351146101b85750600061020a565b816040516020016101c99190614aa2565b60405160208183030381529060405280519060200120836040516020016101f09190614aa2565b604051602081830303815290604052805190602001201490505b92915050565b600084815260036020526040902060100161022b8482614b47565b506000848152600360209081526040909120835161025192601190920191850190613e6d565b506000848152600360209081526040909120825161027792601290920191840190613e6d565b506000848152600360205260409081902060028101805460ff60a01b1916600360a01b17905590517f57551da443eabe56020121e95464e228f6f7cabaf10cce8ca84a1229706991ad916102d091600190910190614c06565b60405180910390a150505050565b6102e6613ec3565b60008481526003602052604090206018016103018482614b47565b506000848152600360209081526040909120835161032792601990920191850190613e6d565b506000848152600360205260409081902060028101805460ff60a01b1916600560a01b17905590517fcd4be5048c19b9ba30c4d18f6e74f9d40ecf419733b6f26bb4f55b4eed92e4529161038091600190910190614c06565b60405180910390a160006003600086815260200190815260200160002060405180610360016040529081600082015481526020016001820180546103c390614abe565b80601f01602080910402602001604051908101604052809291908181526020018280546103ef90614abe565b801561043c5780601f106104115761010080835404028352916020019161043c565b820191906000526020600020905b81548152906001019060200180831161041f57829003601f168201915b505050918352505060028201546001600160a01b0381166020830152604090910190600160a01b900460ff16600581111561047957610479614319565b600581111561048a5761048a614319565b815260200160038201805461049e90614abe565b80601f01602080910402602001604051908101604052809291908181526020018280546104ca90614abe565b80156105175780601f106104ec57610100808354040283529160200191610517565b820191906000526020600020905b8154815290600101906020018083116104fa57829003601f168201915b5050505050815260200160048201805461053090614abe565b80601f016020809104026020016040519081016040528092919081815260200182805461055c90614abe565b80156105a95780601f1061057e576101008083540402835291602001916105a9565b820191906000526020600020905b81548152906001019060200180831161058c57829003601f168201915b505050505081526020016005820180546105c290614abe565b80601f01602080910402602001604051908101604052809291908181526020018280546105ee90614abe565b801561063b5780601f106106105761010080835404028352916020019161063b565b820191906000526020600020905b81548152906001019060200180831161061e57829003601f168201915b5050505050815260200160068201805461065490614abe565b80601f016020809104026020016040519081016040528092919081815260200182805461068090614abe565b80156106cd5780601f106106a2576101008083540402835291602001916106cd565b820191906000526020600020905b8154815290600101906020018083116106b057829003601f168201915b505050505081526020016007820180546106e690614abe565b80601f016020809104026020016040519081016040528092919081815260200182805461071290614abe565b801561075f5780601f106107345761010080835404028352916020019161075f565b820191906000526020600020905b81548152906001019060200180831161074257829003601f168201915b505050505081526020016008820154815260200160098201805480602002602001604051908101604052809291908181526020016000905b828210156108435783829060005260206000200180546107b690614abe565b80601f01602080910402602001604051908101604052809291908181526020018280546107e290614abe565b801561082f5780601f106108045761010080835404028352916020019161082f565b820191906000526020600020905b81548152906001019060200180831161081257829003601f168201915b505050505081526020019060010190610797565b505050508152602001600a8201805461085b90614abe565b80601f016020809104026020016040519081016040528092919081815260200182805461088790614abe565b80156108d45780601f106108a9576101008083540402835291602001916108d4565b820191906000526020600020905b8154815290600101906020018083116108b757829003601f168201915b50505050508152602001600b820180546108ed90614abe565b80601f016020809104026020016040519081016040528092919081815260200182805461091990614abe565b80156109665780601f1061093b57610100808354040283529160200191610966565b820191906000526020600020905b81548152906001019060200180831161094957829003601f168201915b50505050508152602001600c8201805480602002602001604051908101604052809291908181526020016000905b82821015610a405783829060005260206000200180546109b390614abe565b80601f01602080910402602001604051908101604052809291908181526020018280546109df90614abe565b8015610a2c5780601f10610a0157610100808354040283529160200191610a2c565b820191906000526020600020905b815481529060010190602001808311610a0f57829003601f168201915b505050505081526020019060010190610994565b505050508152602001600d8201805480602002602001604051908101604052809291908181526020016000905b82821015610b19578382906000526020600020018054610a8c90614abe565b80601f0160208091040260200160405190810160405280929190818152602001828054610ab890614abe565b8015610b055780601f10610ada57610100808354040283529160200191610b05565b820191906000526020600020905b815481529060010190602001808311610ae857829003601f168201915b505050505081526020019060010190610a6d565b505050508152602001600e82018054610b3190614abe565b80601f0160208091040260200160405190810160405280929190818152602001828054610b5d90614abe565b8015610baa5780601f10610b7f57610100808354040283529160200191610baa565b820191906000526020600020905b815481529060010190602001808311610b8d57829003601f168201915b50505050508152602001600f8201805480602002602001604051908101604052809291908181526020016000905b82821015610c84578382906000526020600020018054610bf790614abe565b80601f0160208091040260200160405190810160405280929190818152602001828054610c2390614abe565b8015610c705780601f10610c4557610100808354040283529160200191610c70565b820191906000526020600020905b815481529060010190602001808311610c5357829003601f168201915b505050505081526020019060010190610bd8565b505050508152602001601082018054610c9c90614abe565b80601f0160208091040260200160405190810160405280929190818152602001828054610cc890614abe565b8015610d155780601f10610cea57610100808354040283529160200191610d15565b820191906000526020600020905b815481529060010190602001808311610cf857829003601f168201915b5050505050815260200160118201805480602002602001604051908101604052809291908181526020016000905b82821015610def578382906000526020600020018054610d6290614abe565b80601f0160208091040260200160405190810160405280929190818152602001828054610d8e90614abe565b8015610ddb5780601f10610db057610100808354040283529160200191610ddb565b820191906000526020600020905b815481529060010190602001808311610dbe57829003601f168201915b505050505081526020019060010190610d43565b50505050815260200160128201805480602002602001604051908101604052809291908181526020016000905b82821015610ec8578382906000526020600020018054610e3b90614abe565b80601f0160208091040260200160405190810160405280929190818152602001828054610e6790614abe565b8015610eb45780601f10610e8957610100808354040283529160200191610eb4565b820191906000526020600020905b815481529060010190602001808311610e9757829003601f168201915b505050505081526020019060010190610e1c565b505050508152602001601382018054610ee090614abe565b80601f0160208091040260200160405190810160405280929190818152602001828054610f0c90614abe565b8015610f595780601f10610f2e57610100808354040283529160200191610f59565b820191906000526020600020905b815481529060010190602001808311610f3c57829003601f168201915b50505050508152602001601482018054610f7290614abe565b80601f0160208091040260200160405190810160405280929190818152602001828054610f9e90614abe565b8015610feb5780601f10610fc057610100808354040283529160200191610feb565b820191906000526020600020905b815481529060010190602001808311610fce57829003601f168201915b5050505050815260200160158201805461100490614abe565b80601f016020809104026020016040519081016040528092919081815260200182805461103090614abe565b801561107d5780601f106110525761010080835404028352916020019161107d565b820191906000526020600020905b81548152906001019060200180831161106057829003601f168201915b5050505050815260200160168201805461109690614abe565b80601f01602080910402602001604051908101604052809291908181526020018280546110c290614abe565b801561110f5780601f106110e45761010080835404028352916020019161110f565b820191906000526020600020905b8154815290600101906020018083116110f257829003601f168201915b5050505050815260200160178201805480602002602001604051908101604052809291908181526020016000905b828210156111e957838290600052602060002001805461115c90614abe565b80601f016020809104026020016040519081016040528092919081815260200182805461118890614abe565b80156111d55780601f106111aa576101008083540402835291602001916111d5565b820191906000526020600020905b8154815290600101906020018083116111b857829003601f168201915b50505050508152602001906001019061113d565b50505050815260200160188201805461120190614abe565b80601f016020809104026020016040519081016040528092919081815260200182805461122d90614abe565b801561127a5780601f1061124f5761010080835404028352916020019161127a565b820191906000526020600020905b81548152906001019060200180831161125d57829003601f168201915b5050505050815260200160198201805480602002602001604051908101604052809291908181526020016000905b828210156113545783829060005260206000200180546112c790614abe565b80601f01602080910402602001604051908101604052809291908181526020018280546112f390614abe565b80156113405780601f1061131557610100808354040283529160200191611340565b820191906000526020600020905b81548152906001019060200180831161132357829003601f168201915b5050505050815260200190600101906112a8565b505050915250909695505050505050565b6000868152600360205260409020600b016113808682614b47565b50600086815260036020908152604090912085516113a692600c90920191870190613e6d565b50600086815260036020908152604090912084516113cc92600d90920191860190613e6d565b506000868152600360205260409020600e016113e88382614b47565b506000868152600360209081526040909120825161140e92600f90920191840190613e6d565b506000868152600360205260409081902060028101805460ff60a01b1916600160a11b17905590517f0ded84c40c107d86701cc04586f7b2bb17e5d1ab979fdd31b0816ff783b21bec9161146791600190910190614c06565b60405180910390a1505050505050565b60025460408051600080825260208201909252606092919081908190816114b4565b6114a1613ec3565b8152602001906001900390816114995790505b50905060005b848110156125a557611574600360006114d4846001614ca7565b815260200190815260200160002060010180546114f090614abe565b80601f016020809104026020016040519081016040528092919081815260200182805461151c90614abe565b80156115695780601f1061153e57610100808354040283529160200191611569565b820191906000526020600020905b81548152906001019060200180831161154c57829003601f168201915b5050505050886101a5565b151560010361258657600060038161158d846001614ca7565b815260200190815260200160002090508060405180610360016040529081600082015481526020016001820180546115c490614abe565b80601f01602080910402602001604051908101604052809291908181526020018280546115f090614abe565b801561163d5780601f106116125761010080835404028352916020019161163d565b820191906000526020600020905b81548152906001019060200180831161162057829003601f168201915b505050918352505060028201546001600160a01b0381166020830152604090910190600160a01b900460ff16600581111561167a5761167a614319565b600581111561168b5761168b614319565b815260200160038201805461169f90614abe565b80601f01602080910402602001604051908101604052809291908181526020018280546116cb90614abe565b80156117185780601f106116ed57610100808354040283529160200191611718565b820191906000526020600020905b8154815290600101906020018083116116fb57829003601f168201915b5050505050815260200160048201805461173190614abe565b80601f016020809104026020016040519081016040528092919081815260200182805461175d90614abe565b80156117aa5780601f1061177f576101008083540402835291602001916117aa565b820191906000526020600020905b81548152906001019060200180831161178d57829003601f168201915b505050505081526020016005820180546117c390614abe565b80601f01602080910402602001604051908101604052809291908181526020018280546117ef90614abe565b801561183c5780601f106118115761010080835404028352916020019161183c565b820191906000526020600020905b81548152906001019060200180831161181f57829003601f168201915b5050505050815260200160068201805461185590614abe565b80601f016020809104026020016040519081016040528092919081815260200182805461188190614abe565b80156118ce5780601f106118a3576101008083540402835291602001916118ce565b820191906000526020600020905b8154815290600101906020018083116118b157829003601f168201915b505050505081526020016007820180546118e790614abe565b80601f016020809104026020016040519081016040528092919081815260200182805461191390614abe565b80156119605780601f1061193557610100808354040283529160200191611960565b820191906000526020600020905b81548152906001019060200180831161194357829003601f168201915b505050505081526020016008820154815260200160098201805480602002602001604051908101604052809291908181526020016000905b82821015611a445783829060005260206000200180546119b790614abe565b80601f01602080910402602001604051908101604052809291908181526020018280546119e390614abe565b8015611a305780601f10611a0557610100808354040283529160200191611a30565b820191906000526020600020905b815481529060010190602001808311611a1357829003601f168201915b505050505081526020019060010190611998565b505050508152602001600a82018054611a5c90614abe565b80601f0160208091040260200160405190810160405280929190818152602001828054611a8890614abe565b8015611ad55780601f10611aaa57610100808354040283529160200191611ad5565b820191906000526020600020905b815481529060010190602001808311611ab857829003601f168201915b50505050508152602001600b82018054611aee90614abe565b80601f0160208091040260200160405190810160405280929190818152602001828054611b1a90614abe565b8015611b675780601f10611b3c57610100808354040283529160200191611b67565b820191906000526020600020905b815481529060010190602001808311611b4a57829003601f168201915b50505050508152602001600c8201805480602002602001604051908101604052809291908181526020016000905b82821015611c41578382906000526020600020018054611bb490614abe565b80601f0160208091040260200160405190810160405280929190818152602001828054611be090614abe565b8015611c2d5780601f10611c0257610100808354040283529160200191611c2d565b820191906000526020600020905b815481529060010190602001808311611c1057829003601f168201915b505050505081526020019060010190611b95565b505050508152602001600d8201805480602002602001604051908101604052809291908181526020016000905b82821015611d1a578382906000526020600020018054611c8d90614abe565b80601f0160208091040260200160405190810160405280929190818152602001828054611cb990614abe565b8015611d065780601f10611cdb57610100808354040283529160200191611d06565b820191906000526020600020905b815481529060010190602001808311611ce957829003601f168201915b505050505081526020019060010190611c6e565b505050508152602001600e82018054611d3290614abe565b80601f0160208091040260200160405190810160405280929190818152602001828054611d5e90614abe565b8015611dab5780601f10611d8057610100808354040283529160200191611dab565b820191906000526020600020905b815481529060010190602001808311611d8e57829003601f168201915b50505050508152602001600f8201805480602002602001604051908101604052809291908181526020016000905b82821015611e85578382906000526020600020018054611df890614abe565b80601f0160208091040260200160405190810160405280929190818152602001828054611e2490614abe565b8015611e715780601f10611e4657610100808354040283529160200191611e71565b820191906000526020600020905b815481529060010190602001808311611e5457829003601f168201915b505050505081526020019060010190611dd9565b505050508152602001601082018054611e9d90614abe565b80601f0160208091040260200160405190810160405280929190818152602001828054611ec990614abe565b8015611f165780601f10611eeb57610100808354040283529160200191611f16565b820191906000526020600020905b815481529060010190602001808311611ef957829003601f168201915b5050505050815260200160118201805480602002602001604051908101604052809291908181526020016000905b82821015611ff0578382906000526020600020018054611f6390614abe565b80601f0160208091040260200160405190810160405280929190818152602001828054611f8f90614abe565b8015611fdc5780601f10611fb157610100808354040283529160200191611fdc565b820191906000526020600020905b815481529060010190602001808311611fbf57829003601f168201915b505050505081526020019060010190611f44565b50505050815260200160128201805480602002602001604051908101604052809291908181526020016000905b828210156120c957838290600052602060002001805461203c90614abe565b80601f016020809104026020016040519081016040528092919081815260200182805461206890614abe565b80156120b55780601f1061208a576101008083540402835291602001916120b5565b820191906000526020600020905b81548152906001019060200180831161209857829003601f168201915b50505050508152602001906001019061201d565b5050505081526020016013820180546120e190614abe565b80601f016020809104026020016040519081016040528092919081815260200182805461210d90614abe565b801561215a5780601f1061212f5761010080835404028352916020019161215a565b820191906000526020600020905b81548152906001019060200180831161213d57829003601f168201915b5050505050815260200160148201805461217390614abe565b80601f016020809104026020016040519081016040528092919081815260200182805461219f90614abe565b80156121ec5780601f106121c1576101008083540402835291602001916121ec565b820191906000526020600020905b8154815290600101906020018083116121cf57829003601f168201915b5050505050815260200160158201805461220590614abe565b80601f016020809104026020016040519081016040528092919081815260200182805461223190614abe565b801561227e5780601f106122535761010080835404028352916020019161227e565b820191906000526020600020905b81548152906001019060200180831161226157829003601f168201915b5050505050815260200160168201805461229790614abe565b80601f01602080910402602001604051908101604052809291908181526020018280546122c390614abe565b80156123105780601f106122e557610100808354040283529160200191612310565b820191906000526020600020905b8154815290600101906020018083116122f357829003601f168201915b5050505050815260200160178201805480602002602001604051908101604052809291908181526020016000905b828210156123ea57838290600052602060002001805461235d90614abe565b80601f016020809104026020016040519081016040528092919081815260200182805461238990614abe565b80156123d65780601f106123ab576101008083540402835291602001916123d6565b820191906000526020600020905b8154815290600101906020018083116123b957829003601f168201915b50505050508152602001906001019061233e565b50505050815260200160188201805461240290614abe565b80601f016020809104026020016040519081016040528092919081815260200182805461242e90614abe565b801561247b5780601f106124505761010080835404028352916020019161247b565b820191906000526020600020905b81548152906001019060200180831161245e57829003601f168201915b5050505050815260200160198201805480602002602001604051908101604052809291908181526020016000905b828210156125555783829060005260206000200180546124c890614abe565b80601f01602080910402602001604051908101604052809291908181526020018280546124f490614abe565b80156125415780601f1061251657610100808354040283529160200191612541565b820191906000526020600020905b81548152906001019060200180831161252457829003601f168201915b5050505050815260200190600101906124a9565b505050508152505083858151811061256f5761256f614cba565b602090810291909101015250909695505050505050565b612591600185614ca7565b93508061259d81614cd0565b9150506114ba565b5095945050505050565b606060006002546001600160401b038111156125cd576125cd614016565b60405190808252806020026020018201604052801561260057816020015b60608152602001906001900390816125eb5790505b509050600080805b6002548110156126875761261d816001614ca7565b6000818152600360205260408120600201549193509061264690600160a01b900460ff16613cd9565b90508085858151811061265b5761265b614cba565b6020908102919091010152612671600185614ca7565b935050808061267f90614cd0565b915050612608565b50919392505050565b60025461269e906001614ca7565b6002556126a9613ec3565b60025480825260208083018c81526001600160a01b038c1660408086019190915260006060860181905260a086018d905260c086018c905260e086018b905261010086018a905261012086018990526101408601889052610160860187905293845260039092529120825181559051829190600182019061272a9082614b47565b5060408201516002820180546001600160a01b039092166001600160a01b03198316811782556060850151926001600160a81b03191617600160a01b83600581111561277857612778614319565b0217905550608082015160038201906127919082614b47565b5060a082015160048201906127a69082614b47565b5060c082015160058201906127bb9082614b47565b5060e082015160068201906127d09082614b47565b5061010082015160078201906127e69082614b47565b506101208201516008820155610140820151805161280e916009840191602090910190613e6d565b50610160820151600a8201906128249082614b47565b50610180820151600b82019061283a9082614b47565b506101a0820151805161285791600c840191602090910190613e6d565b506101c0820151805161287491600d840191602090910190613e6d565b506101e0820151600e82019061288a9082614b47565b5061020082015180516128a791600f840191602090910190613e6d565b5061022082015160108201906128bd9082614b47565b5061024082015180516128da916011840191602090910190613e6d565b5061026082015180516128f7916012840191602090910190613e6d565b50610280820151601382019061290d9082614b47565b506102a082015160148201906129239082614b47565b506102c082015160158201906129399082614b47565b506102e0820151601682019061294f9082614b47565b50610300820151805161296c916017840191602090910190613e6d565b5061032082015160188201906129829082614b47565b50610340820151805161299f916019840191602090910190613e6d565b509050507fdc53d68b91405cf526f6bc9ec0408db6a3e8b0d7512058a2923230b3900e2ee58a6040516129d29190614ce9565b60405180910390a150505050505050505050565b606060006002546001600160401b03811115612a0457612a04614016565b604051908082528060200260200182016040528015612a3757816020015b6060815260200190600190039081612a225790505b509050600080805b60025481101561268757612a54816001614ca7565b60008181526003602052604090206001018054919350908190612a7690614abe565b80601f0160208091040260200160405190810160405280929190818152602001828054612aa290614abe565b8015612aef5780601f10612ac457610100808354040283529160200191612aef565b820191906000526020600020905b815481529060010190602001808311612ad257829003601f168201915b5050505050858581518110612b0657612b06614cba565b6020908102919091010152612b1c600185614ca7565b9350508080612b2a90614cd0565b915050612a3f565b6000878152600360205260409020601301612b4d8782614b47565b506000878152600360205260409020601401612b698682614b47565b506000878152600360205260409020601501612b858582614b47565b506000878152600360205260409020601601612ba18482614b47565b5060008781526003602090815260409091208351612bc792601790920191850190613e6d565b50600087815260036020819052604090912001612be48282614b47565b506000878152600360205260409081902060028101805460ff60a01b1916600160a21b17905590517f9ff1ea8670bd682da798bc2045481ed14191d52fb0d625a3a8cfbff438b4155691612c3d91600190910190614c06565b60405180910390a150505050505050565b606060006002546001600160401b03811115612c6c57612c6c614016565b604051908082528060200260200182016040528015612ca557816020015b612c92613ec3565b815260200190600190039081612c8a5790505b509050600080805b60025481101561268757612cc2816001614ca7565b91506000600360008481526020019081526020016000209050806040518061036001604052908160008201548152602001600182018054612d0290614abe565b80601f0160208091040260200160405190810160405280929190818152602001828054612d2e90614abe565b8015612d7b5780601f10612d5057610100808354040283529160200191612d7b565b820191906000526020600020905b815481529060010190602001808311612d5e57829003601f168201915b505050918352505060028201546001600160a01b0381166020830152604090910190600160a01b900460ff166005811115612db857612db8614319565b6005811115612dc957612dc9614319565b8152602001600382018054612ddd90614abe565b80601f0160208091040260200160405190810160405280929190818152602001828054612e0990614abe565b8015612e565780601f10612e2b57610100808354040283529160200191612e56565b820191906000526020600020905b815481529060010190602001808311612e3957829003601f168201915b50505050508152602001600482018054612e6f90614abe565b80601f0160208091040260200160405190810160405280929190818152602001828054612e9b90614abe565b8015612ee85780601f10612ebd57610100808354040283529160200191612ee8565b820191906000526020600020905b815481529060010190602001808311612ecb57829003601f168201915b50505050508152602001600582018054612f0190614abe565b80601f0160208091040260200160405190810160405280929190818152602001828054612f2d90614abe565b8015612f7a5780601f10612f4f57610100808354040283529160200191612f7a565b820191906000526020600020905b815481529060010190602001808311612f5d57829003601f168201915b50505050508152602001600682018054612f9390614abe565b80601f0160208091040260200160405190810160405280929190818152602001828054612fbf90614abe565b801561300c5780601f10612fe15761010080835404028352916020019161300c565b820191906000526020600020905b815481529060010190602001808311612fef57829003601f168201915b5050505050815260200160078201805461302590614abe565b80601f016020809104026020016040519081016040528092919081815260200182805461305190614abe565b801561309e5780601f106130735761010080835404028352916020019161309e565b820191906000526020600020905b81548152906001019060200180831161308157829003601f168201915b505050505081526020016008820154815260200160098201805480602002602001604051908101604052809291908181526020016000905b828210156131825783829060005260206000200180546130f590614abe565b80601f016020809104026020016040519081016040528092919081815260200182805461312190614abe565b801561316e5780601f106131435761010080835404028352916020019161316e565b820191906000526020600020905b81548152906001019060200180831161315157829003601f168201915b5050505050815260200190600101906130d6565b505050508152602001600a8201805461319a90614abe565b80601f01602080910402602001604051908101604052809291908181526020018280546131c690614abe565b80156132135780601f106131e857610100808354040283529160200191613213565b820191906000526020600020905b8154815290600101906020018083116131f657829003601f168201915b50505050508152602001600b8201805461322c90614abe565b80601f016020809104026020016040519081016040528092919081815260200182805461325890614abe565b80156132a55780601f1061327a576101008083540402835291602001916132a5565b820191906000526020600020905b81548152906001019060200180831161328857829003601f168201915b50505050508152602001600c8201805480602002602001604051908101604052809291908181526020016000905b8282101561337f5783829060005260206000200180546132f290614abe565b80601f016020809104026020016040519081016040528092919081815260200182805461331e90614abe565b801561336b5780601f106133405761010080835404028352916020019161336b565b820191906000526020600020905b81548152906001019060200180831161334e57829003601f168201915b5050505050815260200190600101906132d3565b505050508152602001600d8201805480602002602001604051908101604052809291908181526020016000905b828210156134585783829060005260206000200180546133cb90614abe565b80601f01602080910402602001604051908101604052809291908181526020018280546133f790614abe565b80156134445780601f1061341957610100808354040283529160200191613444565b820191906000526020600020905b81548152906001019060200180831161342757829003601f168201915b5050505050815260200190600101906133ac565b505050508152602001600e8201805461347090614abe565b80601f016020809104026020016040519081016040528092919081815260200182805461349c90614abe565b80156134e95780601f106134be576101008083540402835291602001916134e9565b820191906000526020600020905b8154815290600101906020018083116134cc57829003601f168201915b50505050508152602001600f8201805480602002602001604051908101604052809291908181526020016000905b828210156135c357838290600052602060002001805461353690614abe565b80601f016020809104026020016040519081016040528092919081815260200182805461356290614abe565b80156135af5780601f10613584576101008083540402835291602001916135af565b820191906000526020600020905b81548152906001019060200180831161359257829003601f168201915b505050505081526020019060010190613517565b5050505081526020016010820180546135db90614abe565b80601f016020809104026020016040519081016040528092919081815260200182805461360790614abe565b80156136545780601f1061362957610100808354040283529160200191613654565b820191906000526020600020905b81548152906001019060200180831161363757829003601f168201915b5050505050815260200160118201805480602002602001604051908101604052809291908181526020016000905b8282101561372e5783829060005260206000200180546136a190614abe565b80601f01602080910402602001604051908101604052809291908181526020018280546136cd90614abe565b801561371a5780601f106136ef5761010080835404028352916020019161371a565b820191906000526020600020905b8154815290600101906020018083116136fd57829003601f168201915b505050505081526020019060010190613682565b50505050815260200160128201805480602002602001604051908101604052809291908181526020016000905b8282101561380757838290600052602060002001805461377a90614abe565b80601f01602080910402602001604051908101604052809291908181526020018280546137a690614abe565b80156137f35780601f106137c8576101008083540402835291602001916137f3565b820191906000526020600020905b8154815290600101906020018083116137d657829003601f168201915b50505050508152602001906001019061375b565b50505050815260200160138201805461381f90614abe565b80601f016020809104026020016040519081016040528092919081815260200182805461384b90614abe565b80156138985780601f1061386d57610100808354040283529160200191613898565b820191906000526020600020905b81548152906001019060200180831161387b57829003601f168201915b505050505081526020016014820180546138b190614abe565b80601f01602080910402602001604051908101604052809291908181526020018280546138dd90614abe565b801561392a5780601f106138ff5761010080835404028352916020019161392a565b820191906000526020600020905b81548152906001019060200180831161390d57829003601f168201915b5050505050815260200160158201805461394390614abe565b80601f016020809104026020016040519081016040528092919081815260200182805461396f90614abe565b80156139bc5780601f10613991576101008083540402835291602001916139bc565b820191906000526020600020905b81548152906001019060200180831161399f57829003601f168201915b505050505081526020016016820180546139d590614abe565b80601f0160208091040260200160405190810160405280929190818152602001828054613a0190614abe565b8015613a4e5780601f10613a2357610100808354040283529160200191613a4e565b820191906000526020600020905b815481529060010190602001808311613a3157829003601f168201915b5050505050815260200160178201805480602002602001604051908101604052809291908181526020016000905b82821015613b28578382906000526020600020018054613a9b90614abe565b80601f0160208091040260200160405190810160405280929190818152602001828054613ac790614abe565b8015613b145780601f10613ae957610100808354040283529160200191613b14565b820191906000526020600020905b815481529060010190602001808311613af757829003601f168201915b505050505081526020019060010190613a7c565b505050508152602001601882018054613b4090614abe565b80601f0160208091040260200160405190810160405280929190818152602001828054613b6c90614abe565b8015613bb95780601f10613b8e57610100808354040283529160200191613bb9565b820191906000526020600020905b815481529060010190602001808311613b9c57829003601f168201915b5050505050815260200160198201805480602002602001604051908101604052809291908181526020016000905b82821015613c93578382906000526020600020018054613c0690614abe565b80601f0160208091040260200160405190810160405280929190818152602001828054613c3290614abe565b8015613c7f5780601f10613c5457610100808354040283529160200191613c7f565b820191906000526020600020905b815481529060010190602001808311613c6257829003601f168201915b505050505081526020019060010190613be7565b5050505081525050858581518110613cad57613cad614cba565b6020908102919091010152613cc3600185614ca7565b9350508080613cd190614cd0565b915050612cad565b6060816000816005811115613cf057613cf0614319565b03613d1957505060408051808201909152600681526514d95959195960d21b6020820152919050565b6001816005811115613d2d57613d2d614319565b03613d5757505060408051808201909152600781526647726f77696e6760c81b6020820152919050565b6002816005811115613d6b57613d6b614319565b03613d9757505060408051808201909152600981526812185c9d995cdd195960ba1b6020820152919050565b6003816005811115613dab57613dab614319565b03613dd857505060408051808201909152600a81526950726f63657373696e6760b01b6020820152919050565b6004816005811115613dec57613dec614319565b03613e17575050604080518082019091526008815267526f617374696e6760c01b6020820152919050565b6005816005811115613e2b57613e2b614319565b03613e575750506040805180820190915260098152685061636b6167696e6760b81b6020820152919050565b5050604080516020810190915260008152919050565b828054828255906000526020600020908101928215613eb3579160200282015b82811115613eb35782518290613ea39082614b47565b5091602001919060010190613e8d565b50613ebf929150613fa7565b5090565b604051806103600160405280600081526020016060815260200160006001600160a01b0316815260200160006005811115613f0057613f00614319565b815260200160608152602001606081526020016060815260200160608152602001606081526020016000815260200160608152602001606081526020016060815260200160608152602001606081526020016060815260200160608152602001606081526020016060815260200160608152602001606081526020016060815260200160608152602001606081526020016060815260200160608152602001606081525090565b80821115613ebf576000613fbb8282613fc4565b50600101613fa7565b508054613fd090614abe565b6000825580601f10613fe0575050565b601f016020900490600052602060002090810190613ffe9190614001565b50565b5b80821115613ebf5760008155600101614002565b634e487b7160e01b600052604160045260246000fd5b604051601f8201601f191681016001600160401b038111828210171561405457614054614016565b604052919050565b600082601f83011261406d57600080fd5b81356001600160401b0381111561408657614086614016565b614099601f8201601f191660200161402c565b8181528460208386010111156140ae57600080fd5b816020850160208301376000918101602001919091529392505050565b600080604083850312156140de57600080fd5b82356001600160401b03808211156140f557600080fd5b6141018683870161405c565b9350602085013591508082111561411757600080fd5b506141248582860161405c565b9150509250929050565b600082601f83011261413f57600080fd5b813560206001600160401b038083111561415b5761415b614016565b8260051b61416a83820161402c565b938452858101830193838101908886111561418457600080fd5b84880192505b858310156141c0578235848111156141a25760008081fd5b6141b08a87838c010161405c565b835250918401919084019061418a565b98975050505050505050565b600080600080608085870312156141e257600080fd5b8435935060208501356001600160401b038082111561420057600080fd5b61420c8883890161405c565b9450604087013591508082111561422257600080fd5b61422e8883890161412e565b9350606087013591508082111561424457600080fd5b506142518782880161412e565b91505092959194509250565b60008060006060848603121561427257600080fd5b8335925060208401356001600160401b038082111561429057600080fd5b61429c8783880161405c565b935060408601359150808211156142b257600080fd5b506142bf8682870161412e565b9150509250925092565b60005b838110156142e45781810151838201526020016142cc565b50506000910152565b600081518084526143058160208601602086016142c9565b601f01601f19169290920160200192915050565b634e487b7160e01b600052602160045260246000fd5b6006811061434d57634e487b7160e01b600052602160045260246000fd5b9052565b600082825180855260208086019550808260051b84010181860160005b8481101561439c57601f1986840301895261438a8383516142ed565b9884019892509083019060010161436e565b5090979650505050505050565b60006103608251845260208301518160208601526143c9828601826142ed565b91505060408301516143e660408601826001600160a01b03169052565b5060608301516143f9606086018261432f565b506080830151848203608086015261441182826142ed565b91505060a083015184820360a086015261442b82826142ed565b91505060c083015184820360c086015261444582826142ed565b91505060e083015184820360e086015261445f82826142ed565b915050610100808401518583038287015261447a83826142ed565b9250505061012080840151818601525061014080840151858303828701526144a28382614351565b9250505061016080840151858303828701526144be83826142ed565b9250505061018080840151858303828701526144da83826142ed565b925050506101a080840151858303828701526144f68382614351565b925050506101c080840151858303828701526145128382614351565b925050506101e0808401518583038287015261452e83826142ed565b92505050610200808401518583038287015261454a8382614351565b92505050610220808401518583038287015261456683826142ed565b9250505061024080840151858303828701526145828382614351565b92505050610260808401518583038287015261459e8382614351565b9250505061028080840151858303828701526145ba83826142ed565b925050506102a080840151858303828701526145d683826142ed565b925050506102c080840151858303828701526145f283826142ed565b925050506102e0808401518583038287015261460e83826142ed565b92505050610300808401518583038287015261462a8382614351565b92505050610320808401518583038287015261464683826142ed565b9250505061034080840151858303828701526146628382614351565b9695505050505050565b60208152600061467f60208301846143a9565b9392505050565b60008060008060008060c0878903121561469f57600080fd5b8635955060208701356001600160401b03808211156146bd57600080fd5b6146c98a838b0161405c565b965060408901359150808211156146df57600080fd5b6146eb8a838b0161412e565b9550606089013591508082111561470157600080fd5b61470d8a838b0161412e565b9450608089013591508082111561472357600080fd5b61472f8a838b0161405c565b935060a089013591508082111561474557600080fd5b5061475289828a0161412e565b9150509295509295509295565b60006020828403121561477157600080fd5b81356001600160401b0381111561478757600080fd5b6147938482850161405c565b949350505050565b6000602080830181845280855180835260408601915060408160051b870101925083870160005b828110156147f057603f198886030184526147de8583516143a9565b945092850192908501906001016147c2565b5092979650505050505050565b6000602080830181845280855180835260408601915060408160051b870101925083870160005b828110156147f057603f198886030184526148408583516142ed565b94509285019290850190600101614824565b80356001600160a01b038116811461486957600080fd5b919050565b60008060008060008060008060006101208a8c03121561488d57600080fd5b89356001600160401b03808211156148a457600080fd5b6148b08d838e0161405c565b9a506148be60208d01614852565b995060408c01359150808211156148d457600080fd5b6148e08d838e0161405c565b985060608c01359150808211156148f657600080fd5b6149028d838e0161405c565b975060808c013591508082111561491857600080fd5b6149248d838e0161405c565b965060a08c013591508082111561493a57600080fd5b6149468d838e0161405c565b955060c08c0135945060e08c013591508082111561496357600080fd5b61496f8d838e0161412e565b93506101008c013591508082111561498657600080fd5b506149938c828d0161405c565b9150509295985092959850929598565b600080600080600080600060e0888a0312156149be57600080fd5b8735965060208801356001600160401b03808211156149dc57600080fd5b6149e88b838c0161405c565b975060408a01359150808211156149fe57600080fd5b614a0a8b838c0161405c565b965060608a0135915080821115614a2057600080fd5b614a2c8b838c0161405c565b955060808a0135915080821115614a4257600080fd5b614a4e8b838c0161405c565b945060a08a0135915080821115614a6457600080fd5b614a708b838c0161412e565b935060c08a0135915080821115614a8657600080fd5b50614a938a828b0161405c565b91505092959891949750929550565b60008251614ab48184602087016142c9565b9190910192915050565b600181811c90821680614ad257607f821691505b602082108103614af257634e487b7160e01b600052602260045260246000fd5b50919050565b601f821115614b4257600081815260208120601f850160051c81016020861015614b1f5750805b601f850160051c820191505b81811015614b3e57828155600101614b2b565b5050505b505050565b81516001600160401b03811115614b6057614b60614016565b614b7481614b6e8454614abe565b84614af8565b602080601f831160018114614ba95760008415614b915750858301515b600019600386901b1c1916600185901b178555614b3e565b600085815260208120601f198616915b82811015614bd857888601518255948401946001909101908401614bb9565b5085821015614bf65787850151600019600388901b60f8161c191681555b5050505050600190811b01905550565b6000602080835260008454614c1a81614abe565b80848701526040600180841660008114614c3b5760018114614c5557614c83565b60ff1985168984015283151560051b890183019550614c83565b896000528660002060005b85811015614c7b5781548b8201860152908301908801614c60565b8a0184019650505b509398975050505050505050565b634e487b7160e01b600052601160045260246000fd5b8082018082111561020a5761020a614c91565b634e487b7160e01b600052603260045260246000fd5b600060018201614ce257614ce2614c91565b5060010190565b60208152600061467f60208301846142ed56fea264697066735822122084782cb99a456e2401adec9fd442b760fa6518b563dd4745e1cfb21f69b69aea64736f6c63430008120033",
  "linkReferences": {},
  "deployedLinkReferences": {}
}